{"contracts/AgentArena.sol":{"AgentArena":{"abi":[{"inputs":[{"internalType":"address","name":"_judgeAddress","type":"address"}],"stateMutability":"nonpayable","type":"constructor"},{"anonymous":false,"inputs":[{"indexed":true,"internalType":"address","name":"wallet","type":"address"},{"indexed":false,"internalType":"string","name":"agentId","type":"string"}],"name":"AgentRegistered","type":"event"},{"anonymous":false,"inputs":[{"indexed":true,"internalType":"uint256","name":"taskId","type":"uint256"},{"indexed":true,"internalType":"address","name":"agent","type":"address"},{"indexed":false,"internalType":"uint256","name":"amount","type":"uint256"}],"name":"ConsolationPaid","type":"event"},{"anonymous":false,"inputs":[{"indexed":true,"internalType":"uint256","name":"taskId","type":"uint256"},{"indexed":true,"internalType":"address","name":"poster","type":"address"},{"indexed":false,"internalType":"uint256","name":"amount","type":"uint256"}],"name":"ForceRefunded","type":"event"},{"anonymous":false,"inputs":[{"indexed":true,"internalType":"address","name":"newJudge","type":"address"}],"name":"JudgeUpdated","type":"event"},{"anonymous":false,"inputs":[{"indexed":true,"internalType":"uint256","name":"taskId","type":"uint256"},{"indexed":true,"internalType":"address","name":"agent","type":"address"},{"indexed":false,"internalType":"string","name":"resultHash","type":"string"}],"name":"ResultSubmitted","type":"event"},{"anonymous":false,"inputs":[{"indexed":true,"internalType":"uint256","name":"taskId","type":"uint256"},{"indexed":true,"internalType":"address","name":"agent","type":"address"}],"name":"TaskApplied","type":"event"},{"anonymous":false,"inputs":[{"indexed":true,"internalType":"uint256","name":"taskId","type":"uint256"},{"indexed":true,"internalType":"address","name":"agent","type":"address"},{"indexed":false,"internalType":"uint256","name":"judgeDeadline","type":"uint256"}],"name":"TaskAssigned","type":"event"},{"anonymous":false,"inputs":[{"indexed":true,"internalType":"uint256","name":"taskId","type":"uint256"},{"indexed":true,"internalType":"address","name":"winner","type":"address"},{"indexed":false,"internalType":"uint256","name":"reward","type":"uint256"},{"indexed":false,"internalType":"uint8","name":"score","type":"uint8"}],"name":"TaskCompleted","type":"event"},{"anonymous":false,"inputs":[{"indexed":true,"internalType":"uint256","name":"taskId","type":"uint256"},{"indexed":true,"internalType":"address","name":"poster","type":"address"},{"indexed":false,"internalType":"uint256","name":"reward","type":"uint256"},{"indexed":false,"internalType":"uint256","name":"deadline","type":"uint256"}],"name":"TaskPosted","type":"event"},{"anonymous":false,"inputs":[{"indexed":true,"internalType":"uint256","name":"taskId","type":"uint256"},{"indexed":true,"internalType":"address","name":"poster","type":"address"},{"indexed":false,"internalType":"uint256","name":"amount","type":"uint256"}],"name":"TaskRefunded","type":"event"},{"inputs":[],"name":"CONSOLATION_BPS","outputs":[{"internalType":"uint256","name":"","type":"uint256"}],"stateMutability":"view","type":"function"},{"inputs":[],"name":"JUDGE_TIMEOUT","outputs":[{"internalType":"uint256","name":"","type":"uint256"}],"stateMutability":"view","type":"function"},{"inputs":[],"name":"MIN_PASS_SCORE","outputs":[{"internalType":"uint8","name":"","type":"uint8"}],"stateMutability":"view","type":"function"},{"inputs":[{"internalType":"uint256","name":"","type":"uint256"}],"name":"agentList","outputs":[{"internalType":"address","name":"","type":"address"}],"stateMutability":"view","type":"function"},{"inputs":[{"internalType":"address","name":"","type":"address"}],"name":"agents","outputs":[{"internalType":"address","name":"wallet","type":"address"},{"internalType":"address","name":"owner","type":"address"},{"internalType":"string","name":"agentId","type":"string"},{"internalType":"string","name":"metadata","type":"string"},{"internalType":"uint256","name":"tasksCompleted","type":"uint256"},{"internalType":"uint256","name":"totalScore","type":"uint256"},{"internalType":"uint256","name":"tasksAttempted","type":"uint256"},{"internalType":"bool","name":"registered","type":"bool"}],"stateMutability":"view","type":"function"},{"inputs":[{"internalType":"uint256","name":"taskId","type":"uint256"}],"name":"applyForTask","outputs":[],"stateMutability":"nonpayable","type":"function"},{"inputs":[{"internalType":"uint256","name":"taskId","type":"uint256"},{"internalType":"address","name":"agent","type":"address"}],"name":"assignTask","outputs":[],"stateMutability":"nonpayable","type":"function"},{"inputs":[{"internalType":"uint256","name":"taskId","type":"uint256"}],"name":"forceRefund","outputs":[],"stateMutability":"nonpayable","type":"function"},{"inputs":[],"name":"getAgentCount","outputs":[{"internalType":"uint256","name":"","type":"uint256"}],"stateMutability":"view","type":"function"},{"inputs":[{"internalType":"address","name":"wallet","type":"address"}],"name":"getAgentInfo","outputs":[{"internalType":"address","name":"agentWallet","type":"address"},{"internalType":"address","name":"agentOwner","type":"address"},{"internalType":"string","name":"agentId","type":"string"},{"internalType":"string","name":"metadata","type":"string"},{"internalType":"bool","name":"registered","type":"bool"}],"stateMutability":"view","type":"function"},{"inputs":[{"internalType":"address","name":"wallet","type":"address"}],"name":"getAgentReputation","outputs":[{"internalType":"uint256","name":"avgScore","type":"uint256"},{"internalType":"uint256","name":"completed","type":"uint256"},{"internalType":"uint256","name":"attempted","type":"uint256"},{"internalType":"uint256","name":"winRate","type":"uint256"}],"stateMutability":"view","type":"function"},{"inputs":[{"internalType":"uint256","name":"taskId","type":"uint256"}],"name":"getApplicants","outputs":[{"internalType":"address[]","name":"","type":"address[]"}],"stateMutability":"view","type":"function"},{"inputs":[{"internalType":"address","name":"ownerAddr","type":"address"}],"name":"getMyAgents","outputs":[{"internalType":"address[]","name":"","type":"address[]"}],"stateMutability":"view","type":"function"},{"inputs":[{"internalType":"uint256","name":"","type":"uint256"},{"internalType":"address","name":"","type":"address"}],"name":"hasApplied","outputs":[{"internalType":"bool","name":"","type":"bool"}],"stateMutability":"view","type":"function"},{"inputs":[{"internalType":"uint256","name":"taskId","type":"uint256"}],"name":"isJudgeTimeoutReached","outputs":[{"internalType":"bool","name":"","type":"bool"}],"stateMutability":"view","type":"function"},{"inputs":[],"name":"judgeAddress","outputs":[{"internalType":"address","name":"","type":"address"}],"stateMutability":"view","type":"function"},{"inputs":[{"internalType":"uint256","name":"taskId","type":"uint256"},{"internalType":"uint8","name":"score","type":"uint8"},{"internalType":"address","name":"winner","type":"address"},{"internalType":"string","name":"reasonURI","type":"string"}],"name":"judgeAndPay","outputs":[],"stateMutability":"nonpayable","type":"function"},{"inputs":[],"name":"owner","outputs":[{"internalType":"address","name":"","type":"address"}],"stateMutability":"view","type":"function"},{"inputs":[{"internalType":"uint256","name":"taskId","type":"uint256"},{"internalType":"address","name":"secondPlace","type":"address"}],"name":"payConsolation","outputs":[],"stateMutability":"payable","type":"function"},{"inputs":[{"internalType":"string","name":"description","type":"string"},{"internalType":"string","name":"evaluationCID","type":"string"},{"internalType":"uint256","name":"deadline","type":"uint256"}],"name":"postTask","outputs":[],"stateMutability":"payable","type":"function"},{"inputs":[{"internalType":"uint256","name":"taskId","type":"uint256"}],"name":"refundExpired","outputs":[],"stateMutability":"nonpayable","type":"function"},{"inputs":[{"internalType":"string","name":"agentId","type":"string"},{"internalType":"string","name":"metadata","type":"string"},{"internalType":"address","name":"ownerAddr","type":"address"}],"name":"registerAgent","outputs":[],"stateMutability":"nonpayable","type":"function"},{"inputs":[{"internalType":"address","name":"newJudge","type":"address"}],"name":"setJudge","outputs":[],"stateMutability":"nonpayable","type":"function"},{"inputs":[{"internalType":"uint256","name":"taskId","type":"uint256"},{"internalType":"string","name":"resultHash","type":"string"}],"name":"submitResult","outputs":[],"stateMutability":"nonpayable","type":"function"},{"inputs":[],"name":"taskCount","outputs":[{"internalType":"uint256","name":"","type":"uint256"}],"stateMutability":"view","type":"function"},{"inputs":[{"internalType":"uint256","name":"","type":"uint256"}],"name":"tasks","outputs":[{"internalType":"uint256","name":"id","type":"uint256"},{"internalType":"address","name":"poster","type":"address"},{"internalType":"string","name":"description","type":"string"},{"internalType":"string","name":"evaluationCID","type":"string"},{"internalType":"uint256","name":"reward","type":"uint256"},{"internalType":"uint256","name":"deadline","type":"uint256"},{"internalType":"uint256","name":"assignedAt","type":"uint256"},{"internalType":"uint256","name":"judgeDeadline","type":"uint256"},{"internalType":"enum AgentArena.TaskStatus","name":"status","type":"uint8"},{"internalType":"address","name":"assignedAgent","type":"address"},{"internalType":"string","name":"resultHash","type":"string"},{"internalType":"uint8","name":"score","type":"uint8"},{"internalType":"string","name":"reasonURI","type":"string"},{"internalType":"address","name":"winner","type":"address"},{"internalType":"address","name":"secondPlace","type":"address"}],"stateMutability":"view","type":"function"}],"evm":{"bytecode":{"linkReferences":{},"object":"60803461007f57601f6122e438819003918201601f19168301916001600160401b038311848410176100845780849260209460405283398101031261007f57516001600160a01b0381169081900361007f57600160005560018060a01b0319338160015416176001556002541617600255604051612249908161009b8239f35b600080fd5b634e487b7160e01b600052604160045260246000fdfe6080604052600436101561001257600080fd5b60003560e01c806305f8d94c14611bfc5780631402b17a14611b01578063152052b014611a6457806322db693b14611a0b5780632b4d87831461198d5780632f80c54f146119325780633663670b146115c95780633c03d8be146115a057806345f4c2bb146113cc5780635293ee811461123857806353bce15e14610dd957806367b32dd614610dbc5780636cf5d86e14610d3657806384005f6114610d1a5780638c0dd79a14610ae45780638d977672146109895780638da5cb5b1461096057806391cab63e14610942578063a39bf544146108f5578063b157c5cd1461081f578063b6cb58a514610801578063b8c0da3b146104a9578063d579b4021461048b578063d9b7d154146102ba578063ebeae587146101fc5763fd66091e1461013a57600080fd5b346101f75760203660031901126101f7576001600160a01b038061015c611d2c565b166000526003602052604060002081815416916001820154169061018260028201611e7b565b61018e60038301611e7b565b916004810154926101dc6005830154916101ce60ff600760068701549601541695604051998a99610100918b5260208b01528060408b0152890190611d6e565b908782036060890152611d6e565b93608086015260a085015260c0840152151560e08301520390f35b600080fd5b346101f75760203660031901126101f7576001600160a01b0361021d611d2c565b166000526003602052604060002060048101546006820154908015928184156000146102b05760056102509201546121f3565b915b80156102a4576064820293828504606414171561028e57610275816080956121f3565b915b604051938452602084015260408301526060820152f35b634e487b7160e01b600052601160045260246000fd5b60809350600091610277565b5050600091610252565b346101f7576020806003193601126101f7576004359033600052600381526102ec60ff6007604060002001541661210f565b8160005260048152604060002060ff6008820154166005811015610475576103149015611ff3565b600581015442101561044157600101546001600160a01b03163314610407578160005260068152604060002033600052815260ff604060002054166103d157600390826000526006815260406000203360005281526040600020600160ff19825416179055826000526005815261038f336040600020612189565b336000525260066040600020016103a68154612100565b905533907f7f4b15de145103c2f48b4429df1c147497eb30d764058cdbdd0e7b7ad82d8fac600080a3005b6064906040519062461bcd60e51b82526004820152600f60248201526e105b1c9958591e48185c1c1b1a5959608a1b6044820152fd5b6064906040519062461bcd60e51b825260048201526013602482015272506f737465722063616e6e6f74206170706c7960681b6044820152fd5b60405162461bcd60e51b815260048101839052600c60248201526b15185cdac8195e1c1a5c995960a21b6044820152606490fd5b634e487b7160e01b600052602160045260246000fd5b346101f75760003660031901126101f757602060405162093a808152f35b60603660031901126101f7576004356001600160401b0381116101f7576104d4903690600401611df3565b6024356001600160401b0381116101f7576104f3903690600401611df3565b92909234156107ca57426044351115610785578215610749576008549261051984612100565b60085560008481526004602052604090208481556001810180546001600160a01b03191633179055926001600160401b0382116106c25761056a826105616002870154611e20565b600287016120aa565b600090601f83116001146106d85761059b92916000918361064c575b50508160011b916000199060031b1c19161790565b60028301555b60038201906001600160401b0381116106c2576105c8816105c28454611e20565b846120aa565b6000601f82116001146106575790806105fb926008969760009261064c5750508160011b916000199060031b1c19161790565b90555b34600482015560443560058201550160ff1981541690556040519034825260443560208301527fcdf01a7fce2cec80e8e617626f3f34f334ed96168dfcbebc5b9fd0a64170337e60403393a3005b013590508780610586565b601f198216908360005260206000209160005b8181106106aa5750968392916001946008989910610690575b505050811b0190556105fe565b0135600019600384901b60f8161c19169055868080610683565b9192602060018192868c01358155019401920161066a565b634e487b7160e01b600052604160045260246000fd5b600285939293016000526020600020906000935b601f1984168510610731576001945083601f19811610610717575b505050811b0160028301556105a1565b0135600019600384901b60f8161c19169055868080610707565b818101358355602094850194600190930192016106ec565b60405162461bcd60e51b815260206004820152601460248201527311195cd8dc9a5c1d1a5bdb881c995c5d5a5c995960621b6044820152606490fd5b60405162461bcd60e51b815260206004820152601760248201527f446561646c696e65206d757374206265206675747572650000000000000000006044820152606490fd5b60405162461bcd60e51b815260206004820152600f60248201526e14995dd85c99081c995c5d5a5c9959608a1b6044820152606490fd5b346101f75760003660031901126101f7576020600854604051908152f35b346101f75760203660031901126101f757610838611d2c565b6001546001600160a01b039190821633036108c45716801561088d57600280546001600160a01b031916821790557fa9080c8045c4ebe60262b7efc5fd24d1c7309e350a3c6d1838cfcaf06abdef4d600080a2005b60405162461bcd60e51b815260206004820152600f60248201526e496e76616c6964206164647265737360881b6044820152606490fd5b60405162461bcd60e51b81526020600482015260096024820152682737ba1037bbb732b960b91b6044820152606490fd5b346101f75760403660031901126101f75761090e611d58565b600435600052600660205260406000209060018060a01b0316600052602052602060ff604060002054166040519015158152f35b346101f75760003660031901126101f7576020600954604051908152f35b346101f75760003660031901126101f7576001546040516001600160a01b039091168152602090f35b346101f75760203660031901126101f75760043560005260046020526040600020805490600160a01b6001900360018201541690600281016109ca90611e7b565b916109d760038301611e7b565b926004830154936005840154916006850154600786015460088701549160098801610a0190611e7b565b95600a89015460ff1695600b8a01610a1890611e7b565b600c8b0154600d909b0154604080519e8f5260208f019b909b526101e09a8e018b90526001600160a01b039b8c169b16999096610a57918e0190611d6e565b8c810360608e0152610a6891611d6e565b9960808c015260a08b015260c08a015260e089015260ff8116600511156104755760ff811661010089015260081c6001600160a01b03166101208801528686036101408801528695610ad393610abe9190611d6e565b91610160870152858203610180870152611d6e565b916101a08401526101c08301520390f35b346101f75760403660031901126101f7576001600160401b036004356024358281116101f757610b18903690600401611df3565b909233600052602060038152610b3860ff6007604060002001541661210f565b8360005260048152604060002060088101549060ff821691600583101561047557610b666001809414612067565b3360089190911c6001600160a01b031603610ce0578415610ca4576009019284116106c257610b9f84610b998554611e20565b856120aa565b600091601f8511600114610c1857505091610c0891610bf782807fc06b551d984e333ac851ab20b1454a08d92740468f52ff54c0cd5270817f20a996600091610c0d575b508160011b916000199060031b1c19161790565b90555b6040519182913396836121cb565b0390a3005b905088013589610be3565b60008481528181209392601f19871692905b838310610c8d5750505091610c089391857fc06b551d984e333ac851ab20b1454a08d92740468f52ff54c0cd5270817f20a9969410610c73575b5050600182811b019055610bfa565b870135600019600385901b60f8161c191690558680610c64565b898501358655948501949381019391810191610c2a565b60405162461bcd60e51b815260048101849052601460248201527314995cdd5b1d081a185cda081c995c5d5a5c995960621b6044820152606490fd5b60405162461bcd60e51b8152600481018490526012602482015271139bdd08185cdcda59db9959081859d95b9d60721b6044820152606490fd5b346101f75760003660031901126101f7576020604051603c8152f35b346101f7576020806003193601126101f75760043560005260056020526040600020906040519081602084549182815201936000526020600020916000905b828210610d9c57610d9885610d8c81890382611e5a565b60405191829182611dae565b0390f35b83546001600160a01b031686529485019460019384019390910190610d75565b346101f75760003660031901126101f75760206040516103e88152f35b346101f75760603660031901126101f7576004356001600160401b0381116101f757610e09903690600401611df3565b6024356001600160401b0381116101f757610e28903690600401611df3565b9091610e32611d42565b9133600052600360205260ff600760406000200154166111fe5781156111c6576001600160a01b03928084166111c0575033935b6040519161010083018381106001600160401b038211176106c257604052338352610eae60208401928688168452610e9f36878b612152565b92604086019384523691612152565b606084015260006080840152600060a0840152600060c0840152600160e0840152336000526003602052604060002091858451166001600160601b0360a01b84541617835585600184019151166001600160601b0360a01b825416179055518051906001600160401b0382116106c257610f3882610f2f6002860154611e20565b600286016120aa565b602090601f831160011461114e57610f689291600091836111435750508160011b916000199060031b1c19161790565b60028201555b60608201518051906001600160401b0382116106c257610f9e82610f956003860154611e20565b600386016120aa565b602090601f83116001146110ce578260079360e09593610fd4936000926110c35750508160011b916000199060031b1c19161790565b60038201555b6080840151600482015560a0840151600582015560c0840151600682015501910151151560ff8019835416911617905560095491600160401b8310156106c25760018301806009558310156110ad577fda816ca2fc37b9eecec62ae8263008ec6be1afb38dc28bc9c7c51d7e348da9c2936110a8937f6e1540171b6c0c960b71a7020d9f60077f6af931a8bbf590da0223dacf75c7af01336001600160601b0360a01b82541617905516600052600760205261109a336040600020612189565b6040519182913395836121cb565b0390a2005b634e487b7160e01b600052603260045260246000fd5b015190508b80610586565b906003840160005260206000209160005b601f198516811061112b57509260e0949260019260079583601f19811610611112575b505050811b016003820155610fda565b015160001960f88460031b161c191690558a8080611102565b919260206001819286850151815501940192016110df565b015190508980610586565b9190600284016000526020600020906000935b601f19841685106111a5576001945083601f1981161061118c575b505050811b016002820155610f6e565b015160001960f88460031b161c1916905588808061117c565b81810151835560209485019460019093019290910190611161565b93610e66565b60405162461bcd60e51b815260206004820152601060248201526f1059d95b9d1259081c995c5d5a5c995960821b6044820152606490fd5b60405162461bcd60e51b8152602060048201526012602482015271105b1c9958591e481c9959da5cdd195c995960721b6044820152606490fd5b346101f75760403660031901126101f757600435611254611d58565b908060005260206004815260406000209060018060a01b0393846001840154163314948580156113bf575b1561138957600884019182549160ff83166005811015610475576112a39015611ff3565b81169687600052600385526112c260ff6007604060002001541661210f565b61132e575b6001600160a81b031990911660089190911b610100600160a81b0316176001179055426006830181905562093a80810190811061028e578060077ffdbec991c520c476b24bb9ee9123ea146594b230b424c8140b23c33ac5906242940155604051908152a3005b8560005260068452604060002087600052845260ff604060002054166112c75760405162461bcd60e51b81526004810185905260136024820152724167656e7420646964206e6f74206170706c7960681b6044820152606490fd5b60405162461bcd60e51b815260048101849052600e60248201526d139bdd08185d5d1a1bdc9a5e995960921b6044820152606490fd5b508060025416331461127f565b60403660031901126101f7576004356113e3611d58565b6002546001600160a01b039291906113fe908416331461202f565b61140d60026000541415611f20565b6002600055816000526020906004825260ff60086040600020015416600581101561047557600203611566578316928315159081611549575b501561150e5734156114d257600080808034875af1611463611f87565b5015611499577fc07e777c450bb856b658f73950d73812ad767e7a726d180e8967645b01a3542590604051348152a36001600055005b6064906040519062461bcd60e51b82526004820152601260248201527110dbdb9cdbdb185d1a5bdb8819985a5b195960721b6044820152fd5b6064906040519062461bcd60e51b825260048201526015602482015274139bc818dbdb9cdbdb185d1a5bdb88185b5bdd5b9d605a1b6044820152fd5b6064906040519062461bcd60e51b825260048201526014602482015273496e76616c6964207365636f6e6420706c61636560601b6044820152fd5b90508260005260048252600c604060002001541683141584611446565b60405162461bcd60e51b815260048101839052601260248201527115185cdac81b9bdd0818dbdb5c1b195d195960721b6044820152606490fd5b346101f75760003660031901126101f7576002546040516001600160a01b039091168152602090f35b346101f75760803660031901126101f7576004356024359060ff82168092036101f7576115f4611d42565b916001600160401b03906064358281116101f757611616903690600401611df3565b9460018060a01b039161162e8360025416331461202f565b61163d60026000541415611f20565b60026000558560005260209260048452604060002095600887019360ff85541660058110156104755760016116729114612067565b61167f6009890154611e20565b156118f75782169889156118c157600a8801805460ff199081168917909155600c890180546001600160a01b0319168c17905593600b89019282116106c2576116cc82610b998554611e20565b600090601f831160011461185a576116fc92916000918361184f5750508160011b916000199060031b1c19161790565b90555b6004860154958354828160081c168a1480611844575b156117e357505050600290825416179055846000526003815260046040600020016117408154612100565b90558460005260038152600560406000200180549083820180921161028e5755600080808086895af1611771611f87565b50156117ae57916040917f6f86192dffec1db9a9661011e799dea69af8d97961785f45d421ac62a59e606d938351928352820152a35b6001600055005b6064906040519062461bcd60e51b82526004820152600e60248201526d14185e5b595b9d0819985a5b195960921b6044820152fd5b7f098446306d18a8ba797caf5ad3be836bc7fadb0fa82d207e934992497bdeaf61979950600194929596509260039193161790550161183560008080808a878754165af161182f611f87565b50611fb7565b541693604051908152a36117a7565b50603c871015611715565b013590508c80610586565b601f1983169184600052886000209260005b8a8282106118ab575050908460019594939210611891575b505050811b0190556116ff565b0135600019600384901b60f8161c191690558b8080611884565b600184968293958701358155019501920161186c565b60405162461bcd60e51b815260048101879052600e60248201526d24b73b30b634b2103bb4b73732b960911b6044820152606490fd5b60405162461bcd60e51b8152600481018790526013602482015272139bc81c995cdd5b1d081cdd589b5a5d1d1959606a1b6044820152606490fd5b346101f75760203660031901126101f7576004356009548110156101f75760096000527f6e1540171b6c0c960b71a7020d9f60077f6af931a8bbf590da0223dacf75c7af01546040516001600160a01b039091168152602090f35b346101f7576020806003193601126101f7576001600160a01b03806119b0611d2c565b1660005260076020526040600020916040518092602085549283815201946000526020600020926000915b8383106119f257610d9886610d8c818a0382611e5a565b84548116875295810195600194850194909201916119db565b346101f75760203660031901126101f7576004356000526004602052604060002060ff600882015416906005821015610475576001602092149081611a56575b506040519015158152f35b600791500154421182611a4b565b346101f75760203660031901126101f7576001600160a01b0380611a86611d2c565b166000526003602052604060002090808254169060018301541691611af560ff60078301541691611ae7611ac86003611ac160028501611e7b565b9301611e7b565b916040519687968752602087015260a0604087015260a0860190611d6e565b908482036060860152611d6e565b90151560808301520390f35b346101f75760203660031901126101f757600435611b2460026000541415611f20565b60026000558060005260046020526040600020906008820180549260ff8416600581101561047557611b569015611ff3565b6005810154421115611bc9576001817f098446306d18a8ba797caf5ad3be836bc7fadb0fa82d207e934992497bdeaf61936003600460209501549760ff19161790550160018060a01b0390611bb860008080808a878754165af161182f611f87565b541693604051908152a36001600055005b60405162461bcd60e51b815260206004820152600b60248201526a139bdd08195e1c1a5c995960aa1b6044820152606490fd5b346101f75760203660031901126101f757600435611c1f60026000541415611f20565b60026000558060005260046020526040600020906008820180549260ff8416600581101561047557600103611cf5576007810154421115611cb0576001817fa80d00e5ef4409f5bccace50fa19f6ae8a403470d95d8888605016b72021abda936003600460209501549760ff19161790550160018060a01b0390611bb860008080808a878754165af161182f611f87565b60405162461bcd60e51b815260206004820152601960248201527f4a756467652074696d656f7574206e6f742072656163686564000000000000006044820152606490fd5b60405162461bcd60e51b815260206004820152600f60248201526e4e6f7420696e2070726f677265737360881b6044820152606490fd5b600435906001600160a01b03821682036101f757565b604435906001600160a01b03821682036101f757565b602435906001600160a01b03821682036101f757565b919082519283825260005b848110611d9a575050826000602080949584010152601f8019910116010190565b602081830181015184830182015201611d79565b602090602060408183019282815285518094520193019160005b828110611dd6575050505090565b83516001600160a01b031685529381019392810192600101611dc8565b9181601f840112156101f7578235916001600160401b0383116101f757602083818601950101116101f757565b90600182811c92168015611e50575b6020831014611e3a57565b634e487b7160e01b600052602260045260246000fd5b91607f1691611e2f565b90601f801991011681019081106001600160401b038211176106c257604052565b90604051918260008254611e8e81611e20565b90818452602094600191600181169081600014611efe5750600114611ebf575b505050611ebd92500383611e5a565b565b600090815285812095935091905b818310611ee6575050611ebd9350820101388080611eae565b85548884018501529485019487945091830191611ecd565b92505050611ebd94925060ff191682840152151560051b820101388080611eae565b15611f2757565b60405162461bcd60e51b815260206004820152601f60248201527f5265656e7472616e637947756172643a207265656e7472616e742063616c6c006044820152606490fd5b6001600160401b0381116106c257601f01601f191660200190565b3d15611fb2573d90611f9882611f6c565b91611fa66040519384611e5a565b82523d6000602084013e565b606090565b15611fbe57565b60405162461bcd60e51b815260206004820152600d60248201526c1499599d5b990819985a5b1959609a1b6044820152606490fd5b15611ffa57565b60405162461bcd60e51b815260206004820152600d60248201526c2a30b9b5903737ba1037b832b760991b6044820152606490fd5b1561203657565b60405162461bcd60e51b81526020600482015260096024820152684e6f74206a7564676560b81b6044820152606490fd5b1561206e57565b60405162461bcd60e51b81526020600482015260146024820152735461736b206e6f7420696e2070726f677265737360601b6044820152606490fd5b90601f81116120b857505050565b6000916000526020600020906020601f850160051c830194106120f6575b601f0160051c01915b8281106120eb57505050565b8181556001016120df565b90925082906120d6565b600019811461028e5760010190565b1561211657565b60405162461bcd60e51b81526020600482015260146024820152731059d95b9d081b9bdd081c9959da5cdd195c995960621b6044820152606490fd5b92919261215e82611f6c565b9161216c6040519384611e5a565b8294818452818301116101f7578281602093846000960137010152565b805490600160401b8210156106c257600182018082558210156110ad576000526020600020019060018060a01b03166001600160601b0360a01b825416179055565b90918060409360208452816020850152848401376000828201840152601f01601f1916010190565b81156121fd570490565b634e487b7160e01b600052601260045260246000fdfea2646970667358221220d4a8942151b84518aad3c25a3554c3592d54afb63dbb0e2c869ca32b340b2f5b64736f6c63430008180033","opcodes":"PUSH1 0x80 CALLVALUE PUSH2 0x7F JUMPI PUSH1 0x1F PUSH2 0x22E4 CODESIZE DUP2 SWAP1 SUB SWAP2 DUP3 ADD PUSH1 0x1F NOT AND DUP4 ADD SWAP2 PUSH1 0x1 PUSH1 0x1 PUSH1 0x40 SHL SUB DUP4 GT DUP5 DUP5 LT OR PUSH2 0x84 JUMPI DUP1 DUP5 SWAP3 PUSH1 0x20 SWAP5 PUSH1 0x40 MSTORE DUP4 CODECOPY DUP2 ADD SUB SLT PUSH2 0x7F JUMPI MLOAD PUSH1 0x1 PUSH1 0x1 PUSH1 0xA0 SHL SUB DUP2 AND SWAP1 DUP2 SWAP1 SUB PUSH2 0x7F JUMPI PUSH1 0x1 PUSH1 0x0 SSTORE PUSH1 0x1 DUP1 PUSH1 0xA0 SHL SUB NOT CALLER DUP2 PUSH1 0x1 SLOAD AND OR PUSH1 0x1 SSTORE PUSH1 0x2 SLOAD AND OR PUSH1 0x2 SSTORE PUSH1 0x40 MLOAD PUSH2 0x2249 SWAP1 DUP2 PUSH2 0x9B DUP3 CODECOPY RETURN JUMPDEST PUSH1 0x0 DUP1 REVERT JUMPDEST PUSH4 0x4E487B71 PUSH1 0xE0 SHL PUSH1 0x0 MSTORE PUSH1 0x41 PUSH1 0x4 MSTORE PUSH1 0x24 PUSH1 0x0 REVERT INVALID PUSH1 0x80 PUSH1 0x40 MSTORE PUSH1 0x4 CALLDATASIZE LT ISZERO PUSH2 0x12 JUMPI PUSH1 0x0 DUP1 REVERT JUMPDEST PUSH1 0x0 CALLDATALOAD PUSH1 0xE0 SHR DUP1 PUSH4 0x5F8D94C EQ PUSH2 0x1BFC JUMPI DUP1 PUSH4 0x1402B17A EQ PUSH2 0x1B01 JUMPI DUP1 PUSH4 0x152052B0 EQ PUSH2 0x1A64 JUMPI DUP1 PUSH4 0x22DB693B EQ PUSH2 0x1A0B JUMPI DUP1 PUSH4 0x2B4D8783 EQ PUSH2 0x198D JUMPI DUP1 PUSH4 0x2F80C54F EQ PUSH2 0x1932 JUMPI DUP1 PUSH4 0x3663670B EQ PUSH2 0x15C9 JUMPI DUP1 PUSH4 0x3C03D8BE EQ PUSH2 0x15A0 JUMPI DUP1 PUSH4 0x45F4C2BB EQ PUSH2 0x13CC JUMPI DUP1 PUSH4 0x5293EE81 EQ PUSH2 0x1238 JUMPI DUP1 PUSH4 0x53BCE15E EQ PUSH2 0xDD9 JUMPI DUP1 PUSH4 0x67B32DD6 EQ PUSH2 0xDBC JUMPI DUP1 PUSH4 0x6CF5D86E EQ PUSH2 0xD36 JUMPI DUP1 PUSH4 0x84005F61 EQ PUSH2 0xD1A JUMPI DUP1 PUSH4 0x8C0DD79A EQ PUSH2 0xAE4 JUMPI DUP1 PUSH4 0x8D977672 EQ PUSH2 0x989 JUMPI DUP1 PUSH4 0x8DA5CB5B EQ PUSH2 0x960 JUMPI DUP1 PUSH4 0x91CAB63E EQ PUSH2 0x942 JUMPI DUP1 PUSH4 0xA39BF544 EQ PUSH2 0x8F5 JUMPI DUP1 PUSH4 0xB157C5CD EQ PUSH2 0x81F JUMPI DUP1 PUSH4 0xB6CB58A5 EQ PUSH2 0x801 JUMPI DUP1 PUSH4 0xB8C0DA3B EQ PUSH2 0x4A9 JUMPI DUP1 PUSH4 0xD579B402 EQ PUSH2 0x48B JUMPI DUP1 PUSH4 0xD9B7D154 EQ PUSH2 0x2BA JUMPI DUP1 PUSH4 0xEBEAE587 EQ PUSH2 0x1FC JUMPI PUSH4 0xFD66091E EQ PUSH2 0x13A JUMPI PUSH1 0x0 DUP1 REVERT JUMPDEST CALLVALUE PUSH2 0x1F7 JUMPI PUSH1 0x20 CALLDATASIZE PUSH1 0x3 NOT ADD SLT PUSH2 0x1F7 JUMPI PUSH1 0x1 PUSH1 0x1 PUSH1 0xA0 SHL SUB DUP1 PUSH2 0x15C PUSH2 0x1D2C JUMP JUMPDEST AND PUSH1 0x0 MSTORE PUSH1 0x3 PUSH1 0x20 MSTORE PUSH1 0x40 PUSH1 0x0 KECCAK256 DUP2 DUP2 SLOAD AND SWAP2 PUSH1 0x1 DUP3 ADD SLOAD AND SWAP1 PUSH2 0x182 PUSH1 0x2 DUP3 ADD PUSH2 0x1E7B JUMP JUMPDEST PUSH2 0x18E PUSH1 0x3 DUP4 ADD PUSH2 0x1E7B JUMP JUMPDEST SWAP2 PUSH1 0x4 DUP2 ADD SLOAD SWAP3 PUSH2 0x1DC PUSH1 0x5 DUP4 ADD SLOAD SWAP2 PUSH2 0x1CE PUSH1 0xFF PUSH1 0x7 PUSH1 0x6 DUP8 ADD SLOAD SWAP7 ADD SLOAD AND SWAP6 PUSH1 0x40 MLOAD SWAP10 DUP11 SWAP10 PUSH2 0x100 SWAP2 DUP12 MSTORE PUSH1 0x20 DUP12 ADD MSTORE DUP1 PUSH1 0x40 DUP12 ADD MSTORE DUP10 ADD SWAP1 PUSH2 0x1D6E JUMP JUMPDEST SWAP1 DUP8 DUP3 SUB PUSH1 0x60 DUP10 ADD MSTORE PUSH2 0x1D6E JUMP JUMPDEST SWAP4 PUSH1 0x80 DUP7 ADD MSTORE PUSH1 0xA0 DUP6 ADD MSTORE PUSH1 0xC0 DUP5 ADD MSTORE ISZERO ISZERO PUSH1 0xE0 DUP4 ADD MSTORE SUB SWAP1 RETURN JUMPDEST PUSH1 0x0 DUP1 REVERT JUMPDEST CALLVALUE PUSH2 0x1F7 JUMPI PUSH1 0x20 CALLDATASIZE PUSH1 0x3 NOT ADD SLT PUSH2 0x1F7 JUMPI PUSH1 0x1 PUSH1 0x1 PUSH1 0xA0 SHL SUB PUSH2 0x21D PUSH2 0x1D2C JUMP JUMPDEST AND PUSH1 0x0 MSTORE PUSH1 0x3 PUSH1 0x20 MSTORE PUSH1 0x40 PUSH1 0x0 KECCAK256 PUSH1 0x4 DUP2 ADD SLOAD PUSH1 0x6 DUP3 ADD SLOAD SWAP1 DUP1 ISZERO SWAP3 DUP2 DUP5 ISZERO PUSH1 0x0 EQ PUSH2 0x2B0 JUMPI PUSH1 0x5 PUSH2 0x250 SWAP3 ADD SLOAD PUSH2 0x21F3 JUMP JUMPDEST SWAP2 JUMPDEST DUP1 ISZERO PUSH2 0x2A4 JUMPI PUSH1 0x64 DUP3 MUL SWAP4 DUP3 DUP6 DIV PUSH1 0x64 EQ OR ISZERO PUSH2 0x28E JUMPI PUSH2 0x275 DUP2 PUSH1 0x80 SWAP6 PUSH2 0x21F3 JUMP JUMPDEST SWAP2 JUMPDEST PUSH1 0x40 MLOAD SWAP4 DUP5 MSTORE PUSH1 0x20 DUP5 ADD MSTORE PUSH1 0x40 DUP4 ADD MSTORE PUSH1 0x60 DUP3 ADD MSTORE RETURN JUMPDEST PUSH4 0x4E487B71 PUSH1 0xE0 SHL PUSH1 0x0 MSTORE PUSH1 0x11 PUSH1 0x4 MSTORE PUSH1 0x24 PUSH1 0x0 REVERT JUMPDEST PUSH1 0x80 SWAP4 POP PUSH1 0x0 SWAP2 PUSH2 0x277 JUMP JUMPDEST POP POP PUSH1 0x0 SWAP2 PUSH2 0x252 JUMP JUMPDEST CALLVALUE PUSH2 0x1F7 JUMPI PUSH1 0x20 DUP1 PUSH1 0x3 NOT CALLDATASIZE ADD SLT PUSH2 0x1F7 JUMPI PUSH1 0x4 CALLDATALOAD SWAP1 CALLER PUSH1 0x0 MSTORE PUSH1 0x3 DUP2 MSTORE PUSH2 0x2EC PUSH1 0xFF PUSH1 0x7 PUSH1 0x40 PUSH1 0x0 KECCAK256 ADD SLOAD AND PUSH2 0x210F JUMP JUMPDEST DUP2 PUSH1 0x0 MSTORE PUSH1 0x4 DUP2 MSTORE PUSH1 0x40 PUSH1 0x0 KECCAK256 PUSH1 0xFF PUSH1 0x8 DUP3 ADD SLOAD AND PUSH1 0x5 DUP2 LT ISZERO PUSH2 0x475 JUMPI PUSH2 0x314 SWAP1 ISZERO PUSH2 0x1FF3 JUMP JUMPDEST PUSH1 0x5 DUP2 ADD SLOAD TIMESTAMP LT ISZERO PUSH2 0x441 JUMPI PUSH1 0x1 ADD SLOAD PUSH1 0x1 PUSH1 0x1 PUSH1 0xA0 SHL SUB AND CALLER EQ PUSH2 0x407 JUMPI DUP2 PUSH1 0x0 MSTORE PUSH1 0x6 DUP2 MSTORE PUSH1 0x40 PUSH1 0x0 KECCAK256 CALLER PUSH1 0x0 MSTORE DUP2 MSTORE PUSH1 0xFF PUSH1 0x40 PUSH1 0x0 KECCAK256 SLOAD AND PUSH2 0x3D1 JUMPI PUSH1 0x3 SWAP1 DUP3 PUSH1 0x0 MSTORE PUSH1 0x6 DUP2 MSTORE PUSH1 0x40 PUSH1 0x0 KECCAK256 CALLER PUSH1 0x0 MSTORE DUP2 MSTORE PUSH1 0x40 PUSH1 0x0 KECCAK256 PUSH1 0x1 PUSH1 0xFF NOT DUP3 SLOAD AND OR SWAP1 SSTORE DUP3 PUSH1 0x0 MSTORE PUSH1 0x5 DUP2 MSTORE PUSH2 0x38F CALLER PUSH1 0x40 PUSH1 0x0 KECCAK256 PUSH2 0x2189 JUMP JUMPDEST CALLER PUSH1 0x0 MSTORE MSTORE PUSH1 0x6 PUSH1 0x40 PUSH1 0x0 KECCAK256 ADD PUSH2 0x3A6 DUP2 SLOAD PUSH2 0x2100 JUMP JUMPDEST SWAP1 SSTORE CALLER SWAP1 PUSH32 0x7F4B15DE145103C2F48B4429DF1C147497EB30D764058CDBDD0E7B7AD82D8FAC PUSH1 0x0 DUP1 LOG3 STOP JUMPDEST PUSH1 0x64 SWAP1 PUSH1 0x40 MLOAD SWAP1 PUSH3 0x461BCD PUSH1 0xE5 SHL DUP3 MSTORE PUSH1 0x4 DUP3 ADD MSTORE PUSH1 0xF PUSH1 0x24 DUP3 ADD MSTORE PUSH15 0x105B1C9958591E48185C1C1B1A5959 PUSH1 0x8A SHL PUSH1 0x44 DUP3 ADD MSTORE REVERT JUMPDEST PUSH1 0x64 SWAP1 PUSH1 0x40 MLOAD SWAP1 PUSH3 0x461BCD PUSH1 0xE5 SHL DUP3 MSTORE PUSH1 0x4 DUP3 ADD MSTORE PUSH1 0x13 PUSH1 0x24 DUP3 ADD MSTORE PUSH19 0x506F737465722063616E6E6F74206170706C79 PUSH1 0x68 SHL PUSH1 0x44 DUP3 ADD MSTORE REVERT JUMPDEST PUSH1 0x40 MLOAD PUSH3 0x461BCD PUSH1 0xE5 SHL DUP2 MSTORE PUSH1 0x4 DUP2 ADD DUP4 SWAP1 MSTORE PUSH1 0xC PUSH1 0x24 DUP3 ADD MSTORE PUSH12 0x15185CDAC8195E1C1A5C9959 PUSH1 0xA2 SHL PUSH1 0x44 DUP3 ADD MSTORE PUSH1 0x64 SWAP1 REVERT JUMPDEST PUSH4 0x4E487B71 PUSH1 0xE0 SHL PUSH1 0x0 MSTORE PUSH1 0x21 PUSH1 0x4 MSTORE PUSH1 0x24 PUSH1 0x0 REVERT JUMPDEST CALLVALUE PUSH2 0x1F7 JUMPI PUSH1 0x0 CALLDATASIZE PUSH1 0x3 NOT ADD SLT PUSH2 0x1F7 JUMPI PUSH1 0x20 PUSH1 0x40 MLOAD PUSH3 0x93A80 DUP2 MSTORE RETURN JUMPDEST PUSH1 0x60 CALLDATASIZE PUSH1 0x3 NOT ADD SLT PUSH2 0x1F7 JUMPI PUSH1 0x4 CALLDATALOAD PUSH1 0x1 PUSH1 0x1 PUSH1 0x40 SHL SUB DUP2 GT PUSH2 0x1F7 JUMPI PUSH2 0x4D4 SWAP1 CALLDATASIZE SWAP1 PUSH1 0x4 ADD PUSH2 0x1DF3 JUMP JUMPDEST PUSH1 0x24 CALLDATALOAD PUSH1 0x1 PUSH1 0x1 PUSH1 0x40 SHL SUB DUP2 GT PUSH2 0x1F7 JUMPI PUSH2 0x4F3 SWAP1 CALLDATASIZE SWAP1 PUSH1 0x4 ADD PUSH2 0x1DF3 JUMP JUMPDEST SWAP3 SWAP1 SWAP3 CALLVALUE ISZERO PUSH2 0x7CA JUMPI TIMESTAMP PUSH1 0x44 CALLDATALOAD GT ISZERO PUSH2 0x785 JUMPI DUP3 ISZERO PUSH2 0x749 JUMPI PUSH1 0x8 SLOAD SWAP3 PUSH2 0x519 DUP5 PUSH2 0x2100 JUMP JUMPDEST PUSH1 0x8 SSTORE PUSH1 0x0 DUP5 DUP2 MSTORE PUSH1 0x4 PUSH1 0x20 MSTORE PUSH1 0x40 SWAP1 KECCAK256 DUP5 DUP2 SSTORE PUSH1 0x1 DUP2 ADD DUP1 SLOAD PUSH1 0x1 PUSH1 0x1 PUSH1 0xA0 SHL SUB NOT AND CALLER OR SWAP1 SSTORE SWAP3 PUSH1 0x1 PUSH1 0x1 PUSH1 0x40 SHL SUB DUP3 GT PUSH2 0x6C2 JUMPI PUSH2 0x56A DUP3 PUSH2 0x561 PUSH1 0x2 DUP8 ADD SLOAD PUSH2 0x1E20 JUMP JUMPDEST PUSH1 0x2 DUP8 ADD PUSH2 0x20AA JUMP JUMPDEST PUSH1 0x0 SWAP1 PUSH1 0x1F DUP4 GT PUSH1 0x1 EQ PUSH2 0x6D8 JUMPI PUSH2 0x59B SWAP3 SWAP2 PUSH1 0x0 SWAP2 DUP4 PUSH2 0x64C JUMPI JUMPDEST POP POP DUP2 PUSH1 0x1 SHL SWAP2 PUSH1 0x0 NOT SWAP1 PUSH1 0x3 SHL SHR NOT AND OR SWAP1 JUMP JUMPDEST PUSH1 0x2 DUP4 ADD SSTORE JUMPDEST PUSH1 0x3 DUP3 ADD SWAP1 PUSH1 0x1 PUSH1 0x1 PUSH1 0x40 SHL SUB DUP2 GT PUSH2 0x6C2 JUMPI PUSH2 0x5C8 DUP2 PUSH2 0x5C2 DUP5 SLOAD PUSH2 0x1E20 JUMP JUMPDEST DUP5 PUSH2 0x20AA JUMP JUMPDEST PUSH1 0x0 PUSH1 0x1F DUP3 GT PUSH1 0x1 EQ PUSH2 0x657 JUMPI SWAP1 DUP1 PUSH2 0x5FB SWAP3 PUSH1 0x8 SWAP7 SWAP8 PUSH1 0x0 SWAP3 PUSH2 0x64C JUMPI POP POP DUP2 PUSH1 0x1 SHL SWAP2 PUSH1 0x0 NOT SWAP1 PUSH1 0x3 SHL SHR NOT AND OR SWAP1 JUMP JUMPDEST SWAP1 SSTORE JUMPDEST CALLVALUE PUSH1 0x4 DUP3 ADD SSTORE PUSH1 0x44 CALLDATALOAD PUSH1 0x5 DUP3 ADD SSTORE ADD PUSH1 0xFF NOT DUP2 SLOAD AND SWAP1 SSTORE PUSH1 0x40 MLOAD SWAP1 CALLVALUE DUP3 MSTORE PUSH1 0x44 CALLDATALOAD PUSH1 0x20 DUP4 ADD MSTORE PUSH32 0xCDF01A7FCE2CEC80E8E617626F3F34F334ED96168DFCBEBC5B9FD0A64170337E PUSH1 0x40 CALLER SWAP4 LOG3 STOP JUMPDEST ADD CALLDATALOAD SWAP1 POP DUP8 DUP1 PUSH2 0x586 JUMP JUMPDEST PUSH1 0x1F NOT DUP3 AND SWAP1 DUP4 PUSH1 0x0 MSTORE PUSH1 0x20 PUSH1 0x0 KECCAK256 SWAP2 PUSH1 0x0 JUMPDEST DUP2 DUP2 LT PUSH2 0x6AA JUMPI POP SWAP7 DUP4 SWAP3 SWAP2 PUSH1 0x1 SWAP5 PUSH1 0x8 SWAP9 SWAP10 LT PUSH2 0x690 JUMPI JUMPDEST POP POP POP DUP2 SHL ADD SWAP1 SSTORE PUSH2 0x5FE JUMP JUMPDEST ADD CALLDATALOAD PUSH1 0x0 NOT PUSH1 0x3 DUP5 SWAP1 SHL PUSH1 0xF8 AND SHR NOT AND SWAP1 SSTORE DUP7 DUP1 DUP1 PUSH2 0x683 JUMP JUMPDEST SWAP2 SWAP3 PUSH1 0x20 PUSH1 0x1 DUP2 SWAP3 DUP7 DUP13 ADD CALLDATALOAD DUP2 SSTORE ADD SWAP5 ADD SWAP3 ADD PUSH2 0x66A JUMP JUMPDEST PUSH4 0x4E487B71 PUSH1 0xE0 SHL PUSH1 0x0 MSTORE PUSH1 0x41 PUSH1 0x4 MSTORE PUSH1 0x24 PUSH1 0x0 REVERT JUMPDEST PUSH1 0x2 DUP6 SWAP4 SWAP3 SWAP4 ADD PUSH1 0x0 MSTORE PUSH1 0x20 PUSH1 0x0 KECCAK256 SWAP1 PUSH1 0x0 SWAP4 JUMPDEST PUSH1 0x1F NOT DUP5 AND DUP6 LT PUSH2 0x731 JUMPI PUSH1 0x1 SWAP5 POP DUP4 PUSH1 0x1F NOT DUP2 AND LT PUSH2 0x717 JUMPI JUMPDEST POP POP POP DUP2 SHL ADD PUSH1 0x2 DUP4 ADD SSTORE PUSH2 0x5A1 JUMP JUMPDEST ADD CALLDATALOAD PUSH1 0x0 NOT PUSH1 0x3 DUP5 SWAP1 SHL PUSH1 0xF8 AND SHR NOT AND SWAP1 SSTORE DUP7 DUP1 DUP1 PUSH2 0x707 JUMP JUMPDEST DUP2 DUP2 ADD CALLDATALOAD DUP4 SSTORE PUSH1 0x20 SWAP5 DUP6 ADD SWAP5 PUSH1 0x1 SWAP1 SWAP4 ADD SWAP3 ADD PUSH2 0x6EC JUMP JUMPDEST PUSH1 0x40 MLOAD PUSH3 0x461BCD PUSH1 0xE5 SHL DUP2 MSTORE PUSH1 0x20 PUSH1 0x4 DUP3 ADD MSTORE PUSH1 0x14 PUSH1 0x24 DUP3 ADD MSTORE PUSH20 0x11195CD8DC9A5C1D1A5BDB881C995C5D5A5C9959 PUSH1 0x62 SHL PUSH1 0x44 DUP3 ADD MSTORE PUSH1 0x64 SWAP1 REVERT JUMPDEST PUSH1 0x40 MLOAD PUSH3 0x461BCD PUSH1 0xE5 SHL DUP2 MSTORE PUSH1 0x20 PUSH1 0x4 DUP3 ADD MSTORE PUSH1 0x17 PUSH1 0x24 DUP3 ADD MSTORE PUSH32 0x446561646C696E65206D75737420626520667574757265000000000000000000 PUSH1 0x44 DUP3 ADD MSTORE PUSH1 0x64 SWAP1 REVERT JUMPDEST PUSH1 0x40 MLOAD PUSH3 0x461BCD PUSH1 0xE5 SHL DUP2 MSTORE PUSH1 0x20 PUSH1 0x4 DUP3 ADD MSTORE PUSH1 0xF PUSH1 0x24 DUP3 ADD MSTORE PUSH15 0x14995DD85C99081C995C5D5A5C9959 PUSH1 0x8A SHL PUSH1 0x44 DUP3 ADD MSTORE PUSH1 0x64 SWAP1 REVERT JUMPDEST CALLVALUE PUSH2 0x1F7 JUMPI PUSH1 0x0 CALLDATASIZE PUSH1 0x3 NOT ADD SLT PUSH2 0x1F7 JUMPI PUSH1 0x20 PUSH1 0x8 SLOAD PUSH1 0x40 MLOAD SWAP1 DUP2 MSTORE RETURN JUMPDEST CALLVALUE PUSH2 0x1F7 JUMPI PUSH1 0x20 CALLDATASIZE PUSH1 0x3 NOT ADD SLT PUSH2 0x1F7 JUMPI PUSH2 0x838 PUSH2 0x1D2C JUMP JUMPDEST PUSH1 0x1 SLOAD PUSH1 0x1 PUSH1 0x1 PUSH1 0xA0 SHL SUB SWAP2 SWAP1 DUP3 AND CALLER SUB PUSH2 0x8C4 JUMPI AND DUP1 ISZERO PUSH2 0x88D JUMPI PUSH1 0x2 DUP1 SLOAD PUSH1 0x1 PUSH1 0x1 PUSH1 0xA0 SHL SUB NOT AND DUP3 OR SWAP1 SSTORE PUSH32 0xA9080C8045C4EBE60262B7EFC5FD24D1C7309E350A3C6D1838CFCAF06ABDEF4D PUSH1 0x0 DUP1 LOG2 STOP JUMPDEST PUSH1 0x40 MLOAD PUSH3 0x461BCD PUSH1 0xE5 SHL DUP2 MSTORE PUSH1 0x20 PUSH1 0x4 DUP3 ADD MSTORE PUSH1 0xF PUSH1 0x24 DUP3 ADD MSTORE PUSH15 0x496E76616C69642061646472657373 PUSH1 0x88 SHL PUSH1 0x44 DUP3 ADD MSTORE PUSH1 0x64 SWAP1 REVERT JUMPDEST PUSH1 0x40 MLOAD PUSH3 0x461BCD PUSH1 0xE5 SHL DUP2 MSTORE PUSH1 0x20 PUSH1 0x4 DUP3 ADD MSTORE PUSH1 0x9 PUSH1 0x24 DUP3 ADD MSTORE PUSH9 0x2737BA1037BBB732B9 PUSH1 0xB9 SHL PUSH1 0x44 DUP3 ADD MSTORE PUSH1 0x64 SWAP1 REVERT JUMPDEST CALLVALUE PUSH2 0x1F7 JUMPI PUSH1 0x40 CALLDATASIZE PUSH1 0x3 NOT ADD SLT PUSH2 0x1F7 JUMPI PUSH2 0x90E PUSH2 0x1D58 JUMP JUMPDEST PUSH1 0x4 CALLDATALOAD PUSH1 0x0 MSTORE PUSH1 0x6 PUSH1 0x20 MSTORE PUSH1 0x40 PUSH1 0x0 KECCAK256 SWAP1 PUSH1 0x1 DUP1 PUSH1 0xA0 SHL SUB AND PUSH1 0x0 MSTORE PUSH1 0x20 MSTORE PUSH1 0x20 PUSH1 0xFF PUSH1 0x40 PUSH1 0x0 KECCAK256 SLOAD AND PUSH1 0x40 MLOAD SWAP1 ISZERO ISZERO DUP2 MSTORE RETURN JUMPDEST CALLVALUE PUSH2 0x1F7 JUMPI PUSH1 0x0 CALLDATASIZE PUSH1 0x3 NOT ADD SLT PUSH2 0x1F7 JUMPI PUSH1 0x20 PUSH1 0x9 SLOAD PUSH1 0x40 MLOAD SWAP1 DUP2 MSTORE RETURN JUMPDEST CALLVALUE PUSH2 0x1F7 JUMPI PUSH1 0x0 CALLDATASIZE PUSH1 0x3 NOT ADD SLT PUSH2 0x1F7 JUMPI PUSH1 0x1 SLOAD PUSH1 0x40 MLOAD PUSH1 0x1 PUSH1 0x1 PUSH1 0xA0 SHL SUB SWAP1 SWAP2 AND DUP2 MSTORE PUSH1 0x20 SWAP1 RETURN JUMPDEST CALLVALUE PUSH2 0x1F7 JUMPI PUSH1 0x20 CALLDATASIZE PUSH1 0x3 NOT ADD SLT PUSH2 0x1F7 JUMPI PUSH1 0x4 CALLDATALOAD PUSH1 0x0 MSTORE PUSH1 0x4 PUSH1 0x20 MSTORE PUSH1 0x40 PUSH1 0x0 KECCAK256 DUP1 SLOAD SWAP1 PUSH1 0x1 PUSH1 0xA0 SHL PUSH1 0x1 SWAP1 SUB PUSH1 0x1 DUP3 ADD SLOAD AND SWAP1 PUSH1 0x2 DUP2 ADD PUSH2 0x9CA SWAP1 PUSH2 0x1E7B JUMP JUMPDEST SWAP2 PUSH2 0x9D7 PUSH1 0x3 DUP4 ADD PUSH2 0x1E7B JUMP JUMPDEST SWAP3 PUSH1 0x4 DUP4 ADD SLOAD SWAP4 PUSH1 0x5 DUP5 ADD SLOAD SWAP2 PUSH1 0x6 DUP6 ADD SLOAD PUSH1 0x7 DUP7 ADD SLOAD PUSH1 0x8 DUP8 ADD SLOAD SWAP2 PUSH1 0x9 DUP9 ADD PUSH2 0xA01 SWAP1 PUSH2 0x1E7B JUMP JUMPDEST SWAP6 PUSH1 0xA DUP10 ADD SLOAD PUSH1 0xFF AND SWAP6 PUSH1 0xB DUP11 ADD PUSH2 0xA18 SWAP1 PUSH2 0x1E7B JUMP JUMPDEST PUSH1 0xC DUP12 ADD SLOAD PUSH1 0xD SWAP1 SWAP12 ADD SLOAD PUSH1 0x40 DUP1 MLOAD SWAP15 DUP16 MSTORE PUSH1 0x20 DUP16 ADD SWAP12 SWAP1 SWAP12 MSTORE PUSH2 0x1E0 SWAP11 DUP15 ADD DUP12 SWAP1 MSTORE PUSH1 0x1 PUSH1 0x1 PUSH1 0xA0 SHL SUB SWAP12 DUP13 AND SWAP12 AND SWAP10 SWAP1 SWAP7 PUSH2 0xA57 SWAP2 DUP15 ADD SWAP1 PUSH2 0x1D6E JUMP JUMPDEST DUP13 DUP2 SUB PUSH1 0x60 DUP15 ADD MSTORE PUSH2 0xA68 SWAP2 PUSH2 0x1D6E JUMP JUMPDEST SWAP10 PUSH1 0x80 DUP13 ADD MSTORE PUSH1 0xA0 DUP12 ADD MSTORE PUSH1 0xC0 DUP11 ADD MSTORE PUSH1 0xE0 DUP10 ADD MSTORE PUSH1 0xFF DUP2 AND PUSH1 0x5 GT ISZERO PUSH2 0x475 JUMPI PUSH1 0xFF DUP2 AND PUSH2 0x100 DUP10 ADD MSTORE PUSH1 0x8 SHR PUSH1 0x1 PUSH1 0x1 PUSH1 0xA0 SHL SUB AND PUSH2 0x120 DUP9 ADD MSTORE DUP7 DUP7 SUB PUSH2 0x140 DUP9 ADD MSTORE DUP7 SWAP6 PUSH2 0xAD3 SWAP4 PUSH2 0xABE SWAP2 SWAP1 PUSH2 0x1D6E JUMP JUMPDEST SWAP2 PUSH2 0x160 DUP8 ADD MSTORE DUP6 DUP3 SUB PUSH2 0x180 DUP8 ADD MSTORE PUSH2 0x1D6E JUMP JUMPDEST SWAP2 PUSH2 0x1A0 DUP5 ADD MSTORE PUSH2 0x1C0 DUP4 ADD MSTORE SUB SWAP1 RETURN JUMPDEST CALLVALUE PUSH2 0x1F7 JUMPI PUSH1 0x40 CALLDATASIZE PUSH1 0x3 NOT ADD SLT PUSH2 0x1F7 JUMPI PUSH1 0x1 PUSH1 0x1 PUSH1 0x40 SHL SUB PUSH1 0x4 CALLDATALOAD PUSH1 0x24 CALLDATALOAD DUP3 DUP2 GT PUSH2 0x1F7 JUMPI PUSH2 0xB18 SWAP1 CALLDATASIZE SWAP1 PUSH1 0x4 ADD PUSH2 0x1DF3 JUMP JUMPDEST SWAP1 SWAP3 CALLER PUSH1 0x0 MSTORE PUSH1 0x20 PUSH1 0x3 DUP2 MSTORE PUSH2 0xB38 PUSH1 0xFF PUSH1 0x7 PUSH1 0x40 PUSH1 0x0 KECCAK256 ADD SLOAD AND PUSH2 0x210F JUMP JUMPDEST DUP4 PUSH1 0x0 MSTORE PUSH1 0x4 DUP2 MSTORE PUSH1 0x40 PUSH1 0x0 KECCAK256 PUSH1 0x8 DUP2 ADD SLOAD SWAP1 PUSH1 0xFF DUP3 AND SWAP2 PUSH1 0x5 DUP4 LT ISZERO PUSH2 0x475 JUMPI PUSH2 0xB66 PUSH1 0x1 DUP1 SWAP5 EQ PUSH2 0x2067 JUMP JUMPDEST CALLER PUSH1 0x8 SWAP2 SWAP1 SWAP2 SHR PUSH1 0x1 PUSH1 0x1 PUSH1 0xA0 SHL SUB AND SUB PUSH2 0xCE0 JUMPI DUP5 ISZERO PUSH2 0xCA4 JUMPI PUSH1 0x9 ADD SWAP3 DUP5 GT PUSH2 0x6C2 JUMPI PUSH2 0xB9F DUP5 PUSH2 0xB99 DUP6 SLOAD PUSH2 0x1E20 JUMP JUMPDEST DUP6 PUSH2 0x20AA JUMP JUMPDEST PUSH1 0x0 SWAP2 PUSH1 0x1F DUP6 GT PUSH1 0x1 EQ PUSH2 0xC18 JUMPI POP POP SWAP2 PUSH2 0xC08 SWAP2 PUSH2 0xBF7 DUP3 DUP1 PUSH32 0xC06B551D984E333AC851AB20B1454A08D92740468F52FF54C0CD5270817F20A9 SWAP7 PUSH1 0x0 SWAP2 PUSH2 0xC0D JUMPI JUMPDEST POP DUP2 PUSH1 0x1 SHL SWAP2 PUSH1 0x0 NOT SWAP1 PUSH1 0x3 SHL SHR NOT AND OR SWAP1 JUMP JUMPDEST SWAP1 SSTORE JUMPDEST PUSH1 0x40 MLOAD SWAP2 DUP3 SWAP2 CALLER SWAP7 DUP4 PUSH2 0x21CB JUMP JUMPDEST SUB SWAP1 LOG3 STOP JUMPDEST SWAP1 POP DUP9 ADD CALLDATALOAD DUP10 PUSH2 0xBE3 JUMP JUMPDEST PUSH1 0x0 DUP5 DUP2 MSTORE DUP2 DUP2 KECCAK256 SWAP4 SWAP3 PUSH1 0x1F NOT DUP8 AND SWAP3 SWAP1 JUMPDEST DUP4 DUP4 LT PUSH2 0xC8D JUMPI POP POP POP SWAP2 PUSH2 0xC08 SWAP4 SWAP2 DUP6 PUSH32 0xC06B551D984E333AC851AB20B1454A08D92740468F52FF54C0CD5270817F20A9 SWAP7 SWAP5 LT PUSH2 0xC73 JUMPI JUMPDEST POP POP PUSH1 0x1 DUP3 DUP2 SHL ADD SWAP1 SSTORE PUSH2 0xBFA JUMP JUMPDEST DUP8 ADD CALLDATALOAD PUSH1 0x0 NOT PUSH1 0x3 DUP6 SWAP1 SHL PUSH1 0xF8 AND SHR NOT AND SWAP1 SSTORE DUP7 DUP1 PUSH2 0xC64 JUMP JUMPDEST DUP10 DUP6 ADD CALLDATALOAD DUP7 SSTORE SWAP5 DUP6 ADD SWAP5 SWAP4 DUP2 ADD SWAP4 SWAP2 DUP2 ADD SWAP2 PUSH2 0xC2A JUMP JUMPDEST PUSH1 0x40 MLOAD PUSH3 0x461BCD PUSH1 0xE5 SHL DUP2 MSTORE PUSH1 0x4 DUP2 ADD DUP5 SWAP1 MSTORE PUSH1 0x14 PUSH1 0x24 DUP3 ADD MSTORE PUSH20 0x14995CDD5B1D081A185CDA081C995C5D5A5C9959 PUSH1 0x62 SHL PUSH1 0x44 DUP3 ADD MSTORE PUSH1 0x64 SWAP1 REVERT JUMPDEST PUSH1 0x40 MLOAD PUSH3 0x461BCD PUSH1 0xE5 SHL DUP2 MSTORE PUSH1 0x4 DUP2 ADD DUP5 SWAP1 MSTORE PUSH1 0x12 PUSH1 0x24 DUP3 ADD MSTORE PUSH18 0x139BDD08185CDCDA59DB9959081859D95B9D PUSH1 0x72 SHL PUSH1 0x44 DUP3 ADD MSTORE PUSH1 0x64 SWAP1 REVERT JUMPDEST CALLVALUE PUSH2 0x1F7 JUMPI PUSH1 0x0 CALLDATASIZE PUSH1 0x3 NOT ADD SLT PUSH2 0x1F7 JUMPI PUSH1 0x20 PUSH1 0x40 MLOAD PUSH1 0x3C DUP2 MSTORE RETURN JUMPDEST CALLVALUE PUSH2 0x1F7 JUMPI PUSH1 0x20 DUP1 PUSH1 0x3 NOT CALLDATASIZE ADD SLT PUSH2 0x1F7 JUMPI PUSH1 0x4 CALLDATALOAD PUSH1 0x0 MSTORE PUSH1 0x5 PUSH1 0x20 MSTORE PUSH1 0x40 PUSH1 0x0 KECCAK256 SWAP1 PUSH1 0x40 MLOAD SWAP1 DUP2 PUSH1 0x20 DUP5 SLOAD SWAP2 DUP3 DUP2 MSTORE ADD SWAP4 PUSH1 0x0 MSTORE PUSH1 0x20 PUSH1 0x0 KECCAK256 SWAP2 PUSH1 0x0 SWAP1 JUMPDEST DUP3 DUP3 LT PUSH2 0xD9C JUMPI PUSH2 0xD98 DUP6 PUSH2 0xD8C DUP2 DUP10 SUB DUP3 PUSH2 0x1E5A JUMP JUMPDEST PUSH1 0x40 MLOAD SWAP2 DUP3 SWAP2 DUP3 PUSH2 0x1DAE JUMP JUMPDEST SUB SWAP1 RETURN JUMPDEST DUP4 SLOAD PUSH1 0x1 PUSH1 0x1 PUSH1 0xA0 SHL SUB AND DUP7 MSTORE SWAP5 DUP6 ADD SWAP5 PUSH1 0x1 SWAP4 DUP5 ADD SWAP4 SWAP1 SWAP2 ADD SWAP1 PUSH2 0xD75 JUMP JUMPDEST CALLVALUE PUSH2 0x1F7 JUMPI PUSH1 0x0 CALLDATASIZE PUSH1 0x3 NOT ADD SLT PUSH2 0x1F7 JUMPI PUSH1 0x20 PUSH1 0x40 MLOAD PUSH2 0x3E8 DUP2 MSTORE RETURN JUMPDEST CALLVALUE PUSH2 0x1F7 JUMPI PUSH1 0x60 CALLDATASIZE PUSH1 0x3 NOT ADD SLT PUSH2 0x1F7 JUMPI PUSH1 0x4 CALLDATALOAD PUSH1 0x1 PUSH1 0x1 PUSH1 0x40 SHL SUB DUP2 GT PUSH2 0x1F7 JUMPI PUSH2 0xE09 SWAP1 CALLDATASIZE SWAP1 PUSH1 0x4 ADD PUSH2 0x1DF3 JUMP JUMPDEST PUSH1 0x24 CALLDATALOAD PUSH1 0x1 PUSH1 0x1 PUSH1 0x40 SHL SUB DUP2 GT PUSH2 0x1F7 JUMPI PUSH2 0xE28 SWAP1 CALLDATASIZE SWAP1 PUSH1 0x4 ADD PUSH2 0x1DF3 JUMP JUMPDEST SWAP1 SWAP2 PUSH2 0xE32 PUSH2 0x1D42 JUMP JUMPDEST SWAP2 CALLER PUSH1 0x0 MSTORE PUSH1 0x3 PUSH1 0x20 MSTORE PUSH1 0xFF PUSH1 0x7 PUSH1 0x40 PUSH1 0x0 KECCAK256 ADD SLOAD AND PUSH2 0x11FE JUMPI DUP2 ISZERO PUSH2 0x11C6 JUMPI PUSH1 0x1 PUSH1 0x1 PUSH1 0xA0 SHL SUB SWAP3 DUP1 DUP5 AND PUSH2 0x11C0 JUMPI POP CALLER SWAP4 JUMPDEST PUSH1 0x40 MLOAD SWAP2 PUSH2 0x100 DUP4 ADD DUP4 DUP2 LT PUSH1 0x1 PUSH1 0x1 PUSH1 0x40 SHL SUB DUP3 GT OR PUSH2 0x6C2 JUMPI PUSH1 0x40 MSTORE CALLER DUP4 MSTORE PUSH2 0xEAE PUSH1 0x20 DUP5 ADD SWAP3 DUP7 DUP9 AND DUP5 MSTORE PUSH2 0xE9F CALLDATASIZE DUP8 DUP12 PUSH2 0x2152 JUMP JUMPDEST SWAP3 PUSH1 0x40 DUP7 ADD SWAP4 DUP5 MSTORE CALLDATASIZE SWAP2 PUSH2 0x2152 JUMP JUMPDEST PUSH1 0x60 DUP5 ADD MSTORE PUSH1 0x0 PUSH1 0x80 DUP5 ADD MSTORE PUSH1 0x0 PUSH1 0xA0 DUP5 ADD MSTORE PUSH1 0x0 PUSH1 0xC0 DUP5 ADD MSTORE PUSH1 0x1 PUSH1 0xE0 DUP5 ADD MSTORE CALLER PUSH1 0x0 MSTORE PUSH1 0x3 PUSH1 0x20 MSTORE PUSH1 0x40 PUSH1 0x0 KECCAK256 SWAP2 DUP6 DUP5 MLOAD AND PUSH1 0x1 PUSH1 0x1 PUSH1 0x60 SHL SUB PUSH1 0xA0 SHL DUP5 SLOAD AND OR DUP4 SSTORE DUP6 PUSH1 0x1 DUP5 ADD SWAP2 MLOAD AND PUSH1 0x1 PUSH1 0x1 PUSH1 0x60 SHL SUB PUSH1 0xA0 SHL DUP3 SLOAD AND OR SWAP1 SSTORE MLOAD DUP1 MLOAD SWAP1 PUSH1 0x1 PUSH1 0x1 PUSH1 0x40 SHL SUB DUP3 GT PUSH2 0x6C2 JUMPI PUSH2 0xF38 DUP3 PUSH2 0xF2F PUSH1 0x2 DUP7 ADD SLOAD PUSH2 0x1E20 JUMP JUMPDEST PUSH1 0x2 DUP7 ADD PUSH2 0x20AA JUMP JUMPDEST PUSH1 0x20 SWAP1 PUSH1 0x1F DUP4 GT PUSH1 0x1 EQ PUSH2 0x114E JUMPI PUSH2 0xF68 SWAP3 SWAP2 PUSH1 0x0 SWAP2 DUP4 PUSH2 0x1143 JUMPI POP POP DUP2 PUSH1 0x1 SHL SWAP2 PUSH1 0x0 NOT SWAP1 PUSH1 0x3 SHL SHR NOT AND OR SWAP1 JUMP JUMPDEST PUSH1 0x2 DUP3 ADD SSTORE JUMPDEST PUSH1 0x60 DUP3 ADD MLOAD DUP1 MLOAD SWAP1 PUSH1 0x1 PUSH1 0x1 PUSH1 0x40 SHL SUB DUP3 GT PUSH2 0x6C2 JUMPI PUSH2 0xF9E DUP3 PUSH2 0xF95 PUSH1 0x3 DUP7 ADD SLOAD PUSH2 0x1E20 JUMP JUMPDEST PUSH1 0x3 DUP7 ADD PUSH2 0x20AA JUMP JUMPDEST PUSH1 0x20 SWAP1 PUSH1 0x1F DUP4 GT PUSH1 0x1 EQ PUSH2 0x10CE JUMPI DUP3 PUSH1 0x7 SWAP4 PUSH1 0xE0 SWAP6 SWAP4 PUSH2 0xFD4 SWAP4 PUSH1 0x0 SWAP3 PUSH2 0x10C3 JUMPI POP POP DUP2 PUSH1 0x1 SHL SWAP2 PUSH1 0x0 NOT SWAP1 PUSH1 0x3 SHL SHR NOT AND OR SWAP1 JUMP JUMPDEST PUSH1 0x3 DUP3 ADD SSTORE JUMPDEST PUSH1 0x80 DUP5 ADD MLOAD PUSH1 0x4 DUP3 ADD SSTORE PUSH1 0xA0 DUP5 ADD MLOAD PUSH1 0x5 DUP3 ADD SSTORE PUSH1 0xC0 DUP5 ADD MLOAD PUSH1 0x6 DUP3 ADD SSTORE ADD SWAP2 ADD MLOAD ISZERO ISZERO PUSH1 0xFF DUP1 NOT DUP4 SLOAD AND SWAP2 AND OR SWAP1 SSTORE PUSH1 0x9 SLOAD SWAP2 PUSH1 0x1 PUSH1 0x40 SHL DUP4 LT ISZERO PUSH2 0x6C2 JUMPI PUSH1 0x1 DUP4 ADD DUP1 PUSH1 0x9 SSTORE DUP4 LT ISZERO PUSH2 0x10AD JUMPI PUSH32 0xDA816CA2FC37B9EECEC62AE8263008EC6BE1AFB38DC28BC9C7C51D7E348DA9C2 SWAP4 PUSH2 0x10A8 SWAP4 PUSH32 0x6E1540171B6C0C960B71A7020D9F60077F6AF931A8BBF590DA0223DACF75C7AF ADD CALLER PUSH1 0x1 PUSH1 0x1 PUSH1 0x60 SHL SUB PUSH1 0xA0 SHL DUP3 SLOAD AND OR SWAP1 SSTORE AND PUSH1 0x0 MSTORE PUSH1 0x7 PUSH1 0x20 MSTORE PUSH2 0x109A CALLER PUSH1 0x40 PUSH1 0x0 KECCAK256 PUSH2 0x2189 JUMP JUMPDEST PUSH1 0x40 MLOAD SWAP2 DUP3 SWAP2 CALLER SWAP6 DUP4 PUSH2 0x21CB JUMP JUMPDEST SUB SWAP1 LOG2 STOP JUMPDEST PUSH4 0x4E487B71 PUSH1 0xE0 SHL PUSH1 0x0 MSTORE PUSH1 0x32 PUSH1 0x4 MSTORE PUSH1 0x24 PUSH1 0x0 REVERT JUMPDEST ADD MLOAD SWAP1 POP DUP12 DUP1 PUSH2 0x586 JUMP JUMPDEST SWAP1 PUSH1 0x3 DUP5 ADD PUSH1 0x0 MSTORE PUSH1 0x20 PUSH1 0x0 KECCAK256 SWAP2 PUSH1 0x0 JUMPDEST PUSH1 0x1F NOT DUP6 AND DUP2 LT PUSH2 0x112B JUMPI POP SWAP3 PUSH1 0xE0 SWAP5 SWAP3 PUSH1 0x1 SWAP3 PUSH1 0x7 SWAP6 DUP4 PUSH1 0x1F NOT DUP2 AND LT PUSH2 0x1112 JUMPI JUMPDEST POP POP POP DUP2 SHL ADD PUSH1 0x3 DUP3 ADD SSTORE PUSH2 0xFDA JUMP JUMPDEST ADD MLOAD PUSH1 0x0 NOT PUSH1 0xF8 DUP5 PUSH1 0x3 SHL AND SHR NOT AND SWAP1 SSTORE DUP11 DUP1 DUP1 PUSH2 0x1102 JUMP JUMPDEST SWAP2 SWAP3 PUSH1 0x20 PUSH1 0x1 DUP2 SWAP3 DUP7 DUP6 ADD MLOAD DUP2 SSTORE ADD SWAP5 ADD SWAP3 ADD PUSH2 0x10DF JUMP JUMPDEST ADD MLOAD SWAP1 POP DUP10 DUP1 PUSH2 0x586 JUMP JUMPDEST SWAP2 SWAP1 PUSH1 0x2 DUP5 ADD PUSH1 0x0 MSTORE PUSH1 0x20 PUSH1 0x0 KECCAK256 SWAP1 PUSH1 0x0 SWAP4 JUMPDEST PUSH1 0x1F NOT DUP5 AND DUP6 LT PUSH2 0x11A5 JUMPI PUSH1 0x1 SWAP5 POP DUP4 PUSH1 0x1F NOT DUP2 AND LT PUSH2 0x118C JUMPI JUMPDEST POP POP POP DUP2 SHL ADD PUSH1 0x2 DUP3 ADD SSTORE PUSH2 0xF6E JUMP JUMPDEST ADD MLOAD PUSH1 0x0 NOT PUSH1 0xF8 DUP5 PUSH1 0x3 SHL AND SHR NOT AND SWAP1 SSTORE DUP9 DUP1 DUP1 PUSH2 0x117C JUMP JUMPDEST DUP2 DUP2 ADD MLOAD DUP4 SSTORE PUSH1 0x20 SWAP5 DUP6 ADD SWAP5 PUSH1 0x1 SWAP1 SWAP4 ADD SWAP3 SWAP1 SWAP2 ADD SWAP1 PUSH2 0x1161 JUMP JUMPDEST SWAP4 PUSH2 0xE66 JUMP JUMPDEST PUSH1 0x40 MLOAD PUSH3 0x461BCD PUSH1 0xE5 SHL DUP2 MSTORE PUSH1 0x20 PUSH1 0x4 DUP3 ADD MSTORE PUSH1 0x10 PUSH1 0x24 DUP3 ADD MSTORE PUSH16 0x1059D95B9D1259081C995C5D5A5C9959 PUSH1 0x82 SHL PUSH1 0x44 DUP3 ADD MSTORE PUSH1 0x64 SWAP1 REVERT JUMPDEST PUSH1 0x40 MLOAD PUSH3 0x461BCD PUSH1 0xE5 SHL DUP2 MSTORE PUSH1 0x20 PUSH1 0x4 DUP3 ADD MSTORE PUSH1 0x12 PUSH1 0x24 DUP3 ADD MSTORE PUSH18 0x105B1C9958591E481C9959DA5CDD195C9959 PUSH1 0x72 SHL PUSH1 0x44 DUP3 ADD MSTORE PUSH1 0x64 SWAP1 REVERT JUMPDEST CALLVALUE PUSH2 0x1F7 JUMPI PUSH1 0x40 CALLDATASIZE PUSH1 0x3 NOT ADD SLT PUSH2 0x1F7 JUMPI PUSH1 0x4 CALLDATALOAD PUSH2 0x1254 PUSH2 0x1D58 JUMP JUMPDEST SWAP1 DUP1 PUSH1 0x0 MSTORE PUSH1 0x20 PUSH1 0x4 DUP2 MSTORE PUSH1 0x40 PUSH1 0x0 KECCAK256 SWAP1 PUSH1 0x1 DUP1 PUSH1 0xA0 SHL SUB SWAP4 DUP5 PUSH1 0x1 DUP5 ADD SLOAD AND CALLER EQ SWAP5 DUP6 DUP1 ISZERO PUSH2 0x13BF JUMPI JUMPDEST ISZERO PUSH2 0x1389 JUMPI PUSH1 0x8 DUP5 ADD SWAP2 DUP3 SLOAD SWAP2 PUSH1 0xFF DUP4 AND PUSH1 0x5 DUP2 LT ISZERO PUSH2 0x475 JUMPI PUSH2 0x12A3 SWAP1 ISZERO PUSH2 0x1FF3 JUMP JUMPDEST DUP2 AND SWAP7 DUP8 PUSH1 0x0 MSTORE PUSH1 0x3 DUP6 MSTORE PUSH2 0x12C2 PUSH1 0xFF PUSH1 0x7 PUSH1 0x40 PUSH1 0x0 KECCAK256 ADD SLOAD AND PUSH2 0x210F JUMP JUMPDEST PUSH2 0x132E JUMPI JUMPDEST PUSH1 0x1 PUSH1 0x1 PUSH1 0xA8 SHL SUB NOT SWAP1 SWAP2 AND PUSH1 0x8 SWAP2 SWAP1 SWAP2 SHL PUSH2 0x100 PUSH1 0x1 PUSH1 0xA8 SHL SUB AND OR PUSH1 0x1 OR SWAP1 SSTORE TIMESTAMP PUSH1 0x6 DUP4 ADD DUP2 SWAP1 SSTORE PUSH3 0x93A80 DUP2 ADD SWAP1 DUP2 LT PUSH2 0x28E JUMPI DUP1 PUSH1 0x7 PUSH32 0xFDBEC991C520C476B24BB9EE9123EA146594B230B424C8140B23C33AC5906242 SWAP5 ADD SSTORE PUSH1 0x40 MLOAD SWAP1 DUP2 MSTORE LOG3 STOP JUMPDEST DUP6 PUSH1 0x0 MSTORE PUSH1 0x6 DUP5 MSTORE PUSH1 0x40 PUSH1 0x0 KECCAK256 DUP8 PUSH1 0x0 MSTORE DUP5 MSTORE PUSH1 0xFF PUSH1 0x40 PUSH1 0x0 KECCAK256 SLOAD AND PUSH2 0x12C7 JUMPI PUSH1 0x40 MLOAD PUSH3 0x461BCD PUSH1 0xE5 SHL DUP2 MSTORE PUSH1 0x4 DUP2 ADD DUP6 SWAP1 MSTORE PUSH1 0x13 PUSH1 0x24 DUP3 ADD MSTORE PUSH19 0x4167656E7420646964206E6F74206170706C79 PUSH1 0x68 SHL PUSH1 0x44 DUP3 ADD MSTORE PUSH1 0x64 SWAP1 REVERT JUMPDEST PUSH1 0x40 MLOAD PUSH3 0x461BCD PUSH1 0xE5 SHL DUP2 MSTORE PUSH1 0x4 DUP2 ADD DUP5 SWAP1 MSTORE PUSH1 0xE PUSH1 0x24 DUP3 ADD MSTORE PUSH14 0x139BDD08185D5D1A1BDC9A5E9959 PUSH1 0x92 SHL PUSH1 0x44 DUP3 ADD MSTORE PUSH1 0x64 SWAP1 REVERT JUMPDEST POP DUP1 PUSH1 0x2 SLOAD AND CALLER EQ PUSH2 0x127F JUMP JUMPDEST PUSH1 0x40 CALLDATASIZE PUSH1 0x3 NOT ADD SLT PUSH2 0x1F7 JUMPI PUSH1 0x4 CALLDATALOAD PUSH2 0x13E3 PUSH2 0x1D58 JUMP JUMPDEST PUSH1 0x2 SLOAD PUSH1 0x1 PUSH1 0x1 PUSH1 0xA0 SHL SUB SWAP3 SWAP2 SWAP1 PUSH2 0x13FE SWAP1 DUP5 AND CALLER EQ PUSH2 0x202F JUMP JUMPDEST PUSH2 0x140D PUSH1 0x2 PUSH1 0x0 SLOAD EQ ISZERO PUSH2 0x1F20 JUMP JUMPDEST PUSH1 0x2 PUSH1 0x0 SSTORE DUP2 PUSH1 0x0 MSTORE PUSH1 0x20 SWAP1 PUSH1 0x4 DUP3 MSTORE PUSH1 0xFF PUSH1 0x8 PUSH1 0x40 PUSH1 0x0 KECCAK256 ADD SLOAD AND PUSH1 0x5 DUP2 LT ISZERO PUSH2 0x475 JUMPI PUSH1 0x2 SUB PUSH2 0x1566 JUMPI DUP4 AND SWAP3 DUP4 ISZERO ISZERO SWAP1 DUP2 PUSH2 0x1549 JUMPI JUMPDEST POP ISZERO PUSH2 0x150E JUMPI CALLVALUE ISZERO PUSH2 0x14D2 JUMPI PUSH1 0x0 DUP1 DUP1 DUP1 CALLVALUE DUP8 GAS CALL PUSH2 0x1463 PUSH2 0x1F87 JUMP JUMPDEST POP ISZERO PUSH2 0x1499 JUMPI PUSH32 0xC07E777C450BB856B658F73950D73812AD767E7A726D180E8967645B01A35425 SWAP1 PUSH1 0x40 MLOAD CALLVALUE DUP2 MSTORE LOG3 PUSH1 0x1 PUSH1 0x0 SSTORE STOP JUMPDEST PUSH1 0x64 SWAP1 PUSH1 0x40 MLOAD SWAP1 PUSH3 0x461BCD PUSH1 0xE5 SHL DUP3 MSTORE PUSH1 0x4 DUP3 ADD MSTORE PUSH1 0x12 PUSH1 0x24 DUP3 ADD MSTORE PUSH18 0x10DBDB9CDBDB185D1A5BDB8819985A5B1959 PUSH1 0x72 SHL PUSH1 0x44 DUP3 ADD MSTORE REVERT JUMPDEST PUSH1 0x64 SWAP1 PUSH1 0x40 MLOAD SWAP1 PUSH3 0x461BCD PUSH1 0xE5 SHL DUP3 MSTORE PUSH1 0x4 DUP3 ADD MSTORE PUSH1 0x15 PUSH1 0x24 DUP3 ADD MSTORE PUSH21 0x139BC818DBDB9CDBDB185D1A5BDB88185B5BDD5B9D PUSH1 0x5A SHL PUSH1 0x44 DUP3 ADD MSTORE REVERT JUMPDEST PUSH1 0x64 SWAP1 PUSH1 0x40 MLOAD SWAP1 PUSH3 0x461BCD PUSH1 0xE5 SHL DUP3 MSTORE PUSH1 0x4 DUP3 ADD MSTORE PUSH1 0x14 PUSH1 0x24 DUP3 ADD MSTORE PUSH20 0x496E76616C6964207365636F6E6420706C616365 PUSH1 0x60 SHL PUSH1 0x44 DUP3 ADD MSTORE REVERT JUMPDEST SWAP1 POP DUP3 PUSH1 0x0 MSTORE PUSH1 0x4 DUP3 MSTORE PUSH1 0xC PUSH1 0x40 PUSH1 0x0 KECCAK256 ADD SLOAD AND DUP4 EQ ISZERO DUP5 PUSH2 0x1446 JUMP JUMPDEST PUSH1 0x40 MLOAD PUSH3 0x461BCD PUSH1 0xE5 SHL DUP2 MSTORE PUSH1 0x4 DUP2 ADD DUP4 SWAP1 MSTORE PUSH1 0x12 PUSH1 0x24 DUP3 ADD MSTORE PUSH18 0x15185CDAC81B9BDD0818DBDB5C1B195D1959 PUSH1 0x72 SHL PUSH1 0x44 DUP3 ADD MSTORE PUSH1 0x64 SWAP1 REVERT JUMPDEST CALLVALUE PUSH2 0x1F7 JUMPI PUSH1 0x0 CALLDATASIZE PUSH1 0x3 NOT ADD SLT PUSH2 0x1F7 JUMPI PUSH1 0x2 SLOAD PUSH1 0x40 MLOAD PUSH1 0x1 PUSH1 0x1 PUSH1 0xA0 SHL SUB SWAP1 SWAP2 AND DUP2 MSTORE PUSH1 0x20 SWAP1 RETURN JUMPDEST CALLVALUE PUSH2 0x1F7 JUMPI PUSH1 0x80 CALLDATASIZE PUSH1 0x3 NOT ADD SLT PUSH2 0x1F7 JUMPI PUSH1 0x4 CALLDATALOAD PUSH1 0x24 CALLDATALOAD SWAP1 PUSH1 0xFF DUP3 AND DUP1 SWAP3 SUB PUSH2 0x1F7 JUMPI PUSH2 0x15F4 PUSH2 0x1D42 JUMP JUMPDEST SWAP2 PUSH1 0x1 PUSH1 0x1 PUSH1 0x40 SHL SUB SWAP1 PUSH1 0x64 CALLDATALOAD DUP3 DUP2 GT PUSH2 0x1F7 JUMPI PUSH2 0x1616 SWAP1 CALLDATASIZE SWAP1 PUSH1 0x4 ADD PUSH2 0x1DF3 JUMP JUMPDEST SWAP5 PUSH1 0x1 DUP1 PUSH1 0xA0 SHL SUB SWAP2 PUSH2 0x162E DUP4 PUSH1 0x2 SLOAD AND CALLER EQ PUSH2 0x202F JUMP JUMPDEST PUSH2 0x163D PUSH1 0x2 PUSH1 0x0 SLOAD EQ ISZERO PUSH2 0x1F20 JUMP JUMPDEST PUSH1 0x2 PUSH1 0x0 SSTORE DUP6 PUSH1 0x0 MSTORE PUSH1 0x20 SWAP3 PUSH1 0x4 DUP5 MSTORE PUSH1 0x40 PUSH1 0x0 KECCAK256 SWAP6 PUSH1 0x8 DUP8 ADD SWAP4 PUSH1 0xFF DUP6 SLOAD AND PUSH1 0x5 DUP2 LT ISZERO PUSH2 0x475 JUMPI PUSH1 0x1 PUSH2 0x1672 SWAP2 EQ PUSH2 0x2067 JUMP JUMPDEST PUSH2 0x167F PUSH1 0x9 DUP10 ADD SLOAD PUSH2 0x1E20 JUMP JUMPDEST ISZERO PUSH2 0x18F7 JUMPI DUP3 AND SWAP9 DUP10 ISZERO PUSH2 0x18C1 JUMPI PUSH1 0xA DUP9 ADD DUP1 SLOAD PUSH1 0xFF NOT SWAP1 DUP2 AND DUP10 OR SWAP1 SWAP2 SSTORE PUSH1 0xC DUP10 ADD DUP1 SLOAD PUSH1 0x1 PUSH1 0x1 PUSH1 0xA0 SHL SUB NOT AND DUP13 OR SWAP1 SSTORE SWAP4 PUSH1 0xB DUP10 ADD SWAP3 DUP3 GT PUSH2 0x6C2 JUMPI PUSH2 0x16CC DUP3 PUSH2 0xB99 DUP6 SLOAD PUSH2 0x1E20 JUMP JUMPDEST PUSH1 0x0 SWAP1 PUSH1 0x1F DUP4 GT PUSH1 0x1 EQ PUSH2 0x185A JUMPI PUSH2 0x16FC SWAP3 SWAP2 PUSH1 0x0 SWAP2 DUP4 PUSH2 0x184F JUMPI POP POP DUP2 PUSH1 0x1 SHL SWAP2 PUSH1 0x0 NOT SWAP1 PUSH1 0x3 SHL SHR NOT AND OR SWAP1 JUMP JUMPDEST SWAP1 SSTORE JUMPDEST PUSH1 0x4 DUP7 ADD SLOAD SWAP6 DUP4 SLOAD DUP3 DUP2 PUSH1 0x8 SHR AND DUP11 EQ DUP1 PUSH2 0x1844 JUMPI JUMPDEST ISZERO PUSH2 0x17E3 JUMPI POP POP POP PUSH1 0x2 SWAP1 DUP3 SLOAD AND OR SWAP1 SSTORE DUP5 PUSH1 0x0 MSTORE PUSH1 0x3 DUP2 MSTORE PUSH1 0x4 PUSH1 0x40 PUSH1 0x0 KECCAK256 ADD PUSH2 0x1740 DUP2 SLOAD PUSH2 0x2100 JUMP JUMPDEST SWAP1 SSTORE DUP5 PUSH1 0x0 MSTORE PUSH1 0x3 DUP2 MSTORE PUSH1 0x5 PUSH1 0x40 PUSH1 0x0 KECCAK256 ADD DUP1 SLOAD SWAP1 DUP4 DUP3 ADD DUP1 SWAP3 GT PUSH2 0x28E JUMPI SSTORE PUSH1 0x0 DUP1 DUP1 DUP1 DUP7 DUP10 GAS CALL PUSH2 0x1771 PUSH2 0x1F87 JUMP JUMPDEST POP ISZERO PUSH2 0x17AE JUMPI SWAP2 PUSH1 0x40 SWAP2 PUSH32 0x6F86192DFFEC1DB9A9661011E799DEA69AF8D97961785F45D421AC62A59E606D SWAP4 DUP4 MLOAD SWAP3 DUP4 MSTORE DUP3 ADD MSTORE LOG3 JUMPDEST PUSH1 0x1 PUSH1 0x0 SSTORE STOP JUMPDEST PUSH1 0x64 SWAP1 PUSH1 0x40 MLOAD SWAP1 PUSH3 0x461BCD PUSH1 0xE5 SHL DUP3 MSTORE PUSH1 0x4 DUP3 ADD MSTORE PUSH1 0xE PUSH1 0x24 DUP3 ADD MSTORE PUSH14 0x14185E5B595B9D0819985A5B1959 PUSH1 0x92 SHL PUSH1 0x44 DUP3 ADD MSTORE REVERT JUMPDEST PUSH32 0x98446306D18A8BA797CAF5AD3BE836BC7FADB0FA82D207E934992497BDEAF61 SWAP8 SWAP10 POP PUSH1 0x1 SWAP5 SWAP3 SWAP6 SWAP7 POP SWAP3 PUSH1 0x3 SWAP2 SWAP4 AND OR SWAP1 SSTORE ADD PUSH2 0x1835 PUSH1 0x0 DUP1 DUP1 DUP1 DUP11 DUP8 DUP8 SLOAD AND GAS CALL PUSH2 0x182F PUSH2 0x1F87 JUMP JUMPDEST POP PUSH2 0x1FB7 JUMP JUMPDEST SLOAD AND SWAP4 PUSH1 0x40 MLOAD SWAP1 DUP2 MSTORE LOG3 PUSH2 0x17A7 JUMP JUMPDEST POP PUSH1 0x3C DUP8 LT ISZERO PUSH2 0x1715 JUMP JUMPDEST ADD CALLDATALOAD SWAP1 POP DUP13 DUP1 PUSH2 0x586 JUMP JUMPDEST PUSH1 0x1F NOT DUP4 AND SWAP2 DUP5 PUSH1 0x0 MSTORE DUP9 PUSH1 0x0 KECCAK256 SWAP3 PUSH1 0x0 JUMPDEST DUP11 DUP3 DUP3 LT PUSH2 0x18AB JUMPI POP POP SWAP1 DUP5 PUSH1 0x1 SWAP6 SWAP5 SWAP4 SWAP3 LT PUSH2 0x1891 JUMPI JUMPDEST POP POP POP DUP2 SHL ADD SWAP1 SSTORE PUSH2 0x16FF JUMP JUMPDEST ADD CALLDATALOAD PUSH1 0x0 NOT PUSH1 0x3 DUP5 SWAP1 SHL PUSH1 0xF8 AND SHR NOT AND SWAP1 SSTORE DUP12 DUP1 DUP1 PUSH2 0x1884 JUMP JUMPDEST PUSH1 0x1 DUP5 SWAP7 DUP3 SWAP4 SWAP6 DUP8 ADD CALLDATALOAD DUP2 SSTORE ADD SWAP6 ADD SWAP3 ADD PUSH2 0x186C JUMP JUMPDEST PUSH1 0x40 MLOAD PUSH3 0x461BCD PUSH1 0xE5 SHL DUP2 MSTORE PUSH1 0x4 DUP2 ADD DUP8 SWAP1 MSTORE PUSH1 0xE PUSH1 0x24 DUP3 ADD MSTORE PUSH14 0x24B73B30B634B2103BB4B73732B9 PUSH1 0x91 SHL PUSH1 0x44 DUP3 ADD MSTORE PUSH1 0x64 SWAP1 REVERT JUMPDEST PUSH1 0x40 MLOAD PUSH3 0x461BCD PUSH1 0xE5 SHL DUP2 MSTORE PUSH1 0x4 DUP2 ADD DUP8 SWAP1 MSTORE PUSH1 0x13 PUSH1 0x24 DUP3 ADD MSTORE PUSH19 0x139BC81C995CDD5B1D081CDD589B5A5D1D1959 PUSH1 0x6A SHL PUSH1 0x44 DUP3 ADD MSTORE PUSH1 0x64 SWAP1 REVERT JUMPDEST CALLVALUE PUSH2 0x1F7 JUMPI PUSH1 0x20 CALLDATASIZE PUSH1 0x3 NOT ADD SLT PUSH2 0x1F7 JUMPI PUSH1 0x4 CALLDATALOAD PUSH1 0x9 SLOAD DUP2 LT ISZERO PUSH2 0x1F7 JUMPI PUSH1 0x9 PUSH1 0x0 MSTORE PUSH32 0x6E1540171B6C0C960B71A7020D9F60077F6AF931A8BBF590DA0223DACF75C7AF ADD SLOAD PUSH1 0x40 MLOAD PUSH1 0x1 PUSH1 0x1 PUSH1 0xA0 SHL SUB SWAP1 SWAP2 AND DUP2 MSTORE PUSH1 0x20 SWAP1 RETURN JUMPDEST CALLVALUE PUSH2 0x1F7 JUMPI PUSH1 0x20 DUP1 PUSH1 0x3 NOT CALLDATASIZE ADD SLT PUSH2 0x1F7 JUMPI PUSH1 0x1 PUSH1 0x1 PUSH1 0xA0 SHL SUB DUP1 PUSH2 0x19B0 PUSH2 0x1D2C JUMP JUMPDEST AND PUSH1 0x0 MSTORE PUSH1 0x7 PUSH1 0x20 MSTORE PUSH1 0x40 PUSH1 0x0 KECCAK256 SWAP2 PUSH1 0x40 MLOAD DUP1 SWAP3 PUSH1 0x20 DUP6 SLOAD SWAP3 DUP4 DUP2 MSTORE ADD SWAP5 PUSH1 0x0 MSTORE PUSH1 0x20 PUSH1 0x0 KECCAK256 SWAP3 PUSH1 0x0 SWAP2 JUMPDEST DUP4 DUP4 LT PUSH2 0x19F2 JUMPI PUSH2 0xD98 DUP7 PUSH2 0xD8C DUP2 DUP11 SUB DUP3 PUSH2 0x1E5A JUMP JUMPDEST DUP5 SLOAD DUP2 AND DUP8 MSTORE SWAP6 DUP2 ADD SWAP6 PUSH1 0x1 SWAP5 DUP6 ADD SWAP5 SWAP1 SWAP3 ADD SWAP2 PUSH2 0x19DB JUMP JUMPDEST CALLVALUE PUSH2 0x1F7 JUMPI PUSH1 0x20 CALLDATASIZE PUSH1 0x3 NOT ADD SLT PUSH2 0x1F7 JUMPI PUSH1 0x4 CALLDATALOAD PUSH1 0x0 MSTORE PUSH1 0x4 PUSH1 0x20 MSTORE PUSH1 0x40 PUSH1 0x0 KECCAK256 PUSH1 0xFF PUSH1 0x8 DUP3 ADD SLOAD AND SWAP1 PUSH1 0x5 DUP3 LT ISZERO PUSH2 0x475 JUMPI PUSH1 0x1 PUSH1 0x20 SWAP3 EQ SWAP1 DUP2 PUSH2 0x1A56 JUMPI JUMPDEST POP PUSH1 0x40 MLOAD SWAP1 ISZERO ISZERO DUP2 MSTORE RETURN JUMPDEST PUSH1 0x7 SWAP2 POP ADD SLOAD TIMESTAMP GT DUP3 PUSH2 0x1A4B JUMP JUMPDEST CALLVALUE PUSH2 0x1F7 JUMPI PUSH1 0x20 CALLDATASIZE PUSH1 0x3 NOT ADD SLT PUSH2 0x1F7 JUMPI PUSH1 0x1 PUSH1 0x1 PUSH1 0xA0 SHL SUB DUP1 PUSH2 0x1A86 PUSH2 0x1D2C JUMP JUMPDEST AND PUSH1 0x0 MSTORE PUSH1 0x3 PUSH1 0x20 MSTORE PUSH1 0x40 PUSH1 0x0 KECCAK256 SWAP1 DUP1 DUP3 SLOAD AND SWAP1 PUSH1 0x1 DUP4 ADD SLOAD AND SWAP2 PUSH2 0x1AF5 PUSH1 0xFF PUSH1 0x7 DUP4 ADD SLOAD AND SWAP2 PUSH2 0x1AE7 PUSH2 0x1AC8 PUSH1 0x3 PUSH2 0x1AC1 PUSH1 0x2 DUP6 ADD PUSH2 0x1E7B JUMP JUMPDEST SWAP4 ADD PUSH2 0x1E7B JUMP JUMPDEST SWAP2 PUSH1 0x40 MLOAD SWAP7 DUP8 SWAP7 DUP8 MSTORE PUSH1 0x20 DUP8 ADD MSTORE PUSH1 0xA0 PUSH1 0x40 DUP8 ADD MSTORE PUSH1 0xA0 DUP7 ADD SWAP1 PUSH2 0x1D6E JUMP JUMPDEST SWAP1 DUP5 DUP3 SUB PUSH1 0x60 DUP7 ADD MSTORE PUSH2 0x1D6E JUMP JUMPDEST SWAP1 ISZERO ISZERO PUSH1 0x80 DUP4 ADD MSTORE SUB SWAP1 RETURN JUMPDEST CALLVALUE PUSH2 0x1F7 JUMPI PUSH1 0x20 CALLDATASIZE PUSH1 0x3 NOT ADD SLT PUSH2 0x1F7 JUMPI PUSH1 0x4 CALLDATALOAD PUSH2 0x1B24 PUSH1 0x2 PUSH1 0x0 SLOAD EQ ISZERO PUSH2 0x1F20 JUMP JUMPDEST PUSH1 0x2 PUSH1 0x0 SSTORE DUP1 PUSH1 0x0 MSTORE PUSH1 0x4 PUSH1 0x20 MSTORE PUSH1 0x40 PUSH1 0x0 KECCAK256 SWAP1 PUSH1 0x8 DUP3 ADD DUP1 SLOAD SWAP3 PUSH1 0xFF DUP5 AND PUSH1 0x5 DUP2 LT ISZERO PUSH2 0x475 JUMPI PUSH2 0x1B56 SWAP1 ISZERO PUSH2 0x1FF3 JUMP JUMPDEST PUSH1 0x5 DUP2 ADD SLOAD TIMESTAMP GT ISZERO PUSH2 0x1BC9 JUMPI PUSH1 0x1 DUP2 PUSH32 0x98446306D18A8BA797CAF5AD3BE836BC7FADB0FA82D207E934992497BDEAF61 SWAP4 PUSH1 0x3 PUSH1 0x4 PUSH1 0x20 SWAP6 ADD SLOAD SWAP8 PUSH1 0xFF NOT AND OR SWAP1 SSTORE ADD PUSH1 0x1 DUP1 PUSH1 0xA0 SHL SUB SWAP1 PUSH2 0x1BB8 PUSH1 0x0 DUP1 DUP1 DUP1 DUP11 DUP8 DUP8 SLOAD AND GAS CALL PUSH2 0x182F PUSH2 0x1F87 JUMP JUMPDEST SLOAD AND SWAP4 PUSH1 0x40 MLOAD SWAP1 DUP2 MSTORE LOG3 PUSH1 0x1 PUSH1 0x0 SSTORE STOP JUMPDEST PUSH1 0x40 MLOAD PUSH3 0x461BCD PUSH1 0xE5 SHL DUP2 MSTORE PUSH1 0x20 PUSH1 0x4 DUP3 ADD MSTORE PUSH1 0xB PUSH1 0x24 DUP3 ADD MSTORE PUSH11 0x139BDD08195E1C1A5C9959 PUSH1 0xAA SHL PUSH1 0x44 DUP3 ADD MSTORE PUSH1 0x64 SWAP1 REVERT JUMPDEST CALLVALUE PUSH2 0x1F7 JUMPI PUSH1 0x20 CALLDATASIZE PUSH1 0x3 NOT ADD SLT PUSH2 0x1F7 JUMPI PUSH1 0x4 CALLDATALOAD PUSH2 0x1C1F PUSH1 0x2 PUSH1 0x0 SLOAD EQ ISZERO PUSH2 0x1F20 JUMP JUMPDEST PUSH1 0x2 PUSH1 0x0 SSTORE DUP1 PUSH1 0x0 MSTORE PUSH1 0x4 PUSH1 0x20 MSTORE PUSH1 0x40 PUSH1 0x0 KECCAK256 SWAP1 PUSH1 0x8 DUP3 ADD DUP1 SLOAD SWAP3 PUSH1 0xFF DUP5 AND PUSH1 0x5 DUP2 LT ISZERO PUSH2 0x475 JUMPI PUSH1 0x1 SUB PUSH2 0x1CF5 JUMPI PUSH1 0x7 DUP2 ADD SLOAD TIMESTAMP GT ISZERO PUSH2 0x1CB0 JUMPI PUSH1 0x1 DUP2 PUSH32 0xA80D00E5EF4409F5BCCACE50FA19F6AE8A403470D95D8888605016B72021ABDA SWAP4 PUSH1 0x3 PUSH1 0x4 PUSH1 0x20 SWAP6 ADD SLOAD SWAP8 PUSH1 0xFF NOT AND OR SWAP1 SSTORE ADD PUSH1 0x1 DUP1 PUSH1 0xA0 SHL SUB SWAP1 PUSH2 0x1BB8 PUSH1 0x0 DUP1 DUP1 DUP1 DUP11 DUP8 DUP8 SLOAD AND GAS CALL PUSH2 0x182F PUSH2 0x1F87 JUMP JUMPDEST PUSH1 0x40 MLOAD PUSH3 0x461BCD PUSH1 0xE5 SHL DUP2 MSTORE PUSH1 0x20 PUSH1 0x4 DUP3 ADD MSTORE PUSH1 0x19 PUSH1 0x24 DUP3 ADD MSTORE PUSH32 0x4A756467652074696D656F7574206E6F74207265616368656400000000000000 PUSH1 0x44 DUP3 ADD MSTORE PUSH1 0x64 SWAP1 REVERT JUMPDEST PUSH1 0x40 MLOAD PUSH3 0x461BCD PUSH1 0xE5 SHL DUP2 MSTORE PUSH1 0x20 PUSH1 0x4 DUP3 ADD MSTORE PUSH1 0xF PUSH1 0x24 DUP3 ADD MSTORE PUSH15 0x4E6F7420696E2070726F6772657373 PUSH1 0x88 SHL PUSH1 0x44 DUP3 ADD MSTORE PUSH1 0x64 SWAP1 REVERT JUMPDEST PUSH1 0x4 CALLDATALOAD SWAP1 PUSH1 0x1 PUSH1 0x1 PUSH1 0xA0 SHL SUB DUP3 AND DUP3 SUB PUSH2 0x1F7 JUMPI JUMP JUMPDEST PUSH1 0x44 CALLDATALOAD SWAP1 PUSH1 0x1 PUSH1 0x1 PUSH1 0xA0 SHL SUB DUP3 AND DUP3 SUB PUSH2 0x1F7 JUMPI JUMP JUMPDEST PUSH1 0x24 CALLDATALOAD SWAP1 PUSH1 0x1 PUSH1 0x1 PUSH1 0xA0 SHL SUB DUP3 AND DUP3 SUB PUSH2 0x1F7 JUMPI JUMP JUMPDEST SWAP2 SWAP1 DUP3 MLOAD SWAP3 DUP4 DUP3 MSTORE PUSH1 0x0 JUMPDEST DUP5 DUP2 LT PUSH2 0x1D9A JUMPI POP POP DUP3 PUSH1 0x0 PUSH1 0x20 DUP1 SWAP5 SWAP6 DUP5 ADD ADD MSTORE PUSH1 0x1F DUP1 NOT SWAP2 ADD AND ADD ADD SWAP1 JUMP JUMPDEST PUSH1 0x20 DUP2 DUP4 ADD DUP2 ADD MLOAD DUP5 DUP4 ADD DUP3 ADD MSTORE ADD PUSH2 0x1D79 JUMP JUMPDEST PUSH1 0x20 SWAP1 PUSH1 0x20 PUSH1 0x40 DUP2 DUP4 ADD SWAP3 DUP3 DUP2 MSTORE DUP6 MLOAD DUP1 SWAP5 MSTORE ADD SWAP4 ADD SWAP2 PUSH1 0x0 JUMPDEST DUP3 DUP2 LT PUSH2 0x1DD6 JUMPI POP POP POP POP SWAP1 JUMP JUMPDEST DUP4 MLOAD PUSH1 0x1 PUSH1 0x1 PUSH1 0xA0 SHL SUB AND DUP6 MSTORE SWAP4 DUP2 ADD SWAP4 SWAP3 DUP2 ADD SWAP3 PUSH1 0x1 ADD PUSH2 0x1DC8 JUMP JUMPDEST SWAP2 DUP2 PUSH1 0x1F DUP5 ADD SLT ISZERO PUSH2 0x1F7 JUMPI DUP3 CALLDATALOAD SWAP2 PUSH1 0x1 PUSH1 0x1 PUSH1 0x40 SHL SUB DUP4 GT PUSH2 0x1F7 JUMPI PUSH1 0x20 DUP4 DUP2 DUP7 ADD SWAP6 ADD ADD GT PUSH2 0x1F7 JUMPI JUMP JUMPDEST SWAP1 PUSH1 0x1 DUP3 DUP2 SHR SWAP3 AND DUP1 ISZERO PUSH2 0x1E50 JUMPI JUMPDEST PUSH1 0x20 DUP4 LT EQ PUSH2 0x1E3A JUMPI JUMP JUMPDEST PUSH4 0x4E487B71 PUSH1 0xE0 SHL PUSH1 0x0 MSTORE PUSH1 0x22 PUSH1 0x4 MSTORE PUSH1 0x24 PUSH1 0x0 REVERT JUMPDEST SWAP2 PUSH1 0x7F AND SWAP2 PUSH2 0x1E2F JUMP JUMPDEST SWAP1 PUSH1 0x1F DUP1 NOT SWAP2 ADD AND DUP2 ADD SWAP1 DUP2 LT PUSH1 0x1 PUSH1 0x1 PUSH1 0x40 SHL SUB DUP3 GT OR PUSH2 0x6C2 JUMPI PUSH1 0x40 MSTORE JUMP JUMPDEST SWAP1 PUSH1 0x40 MLOAD SWAP2 DUP3 PUSH1 0x0 DUP3 SLOAD PUSH2 0x1E8E DUP2 PUSH2 0x1E20 JUMP JUMPDEST SWAP1 DUP2 DUP5 MSTORE PUSH1 0x20 SWAP5 PUSH1 0x1 SWAP2 PUSH1 0x1 DUP2 AND SWAP1 DUP2 PUSH1 0x0 EQ PUSH2 0x1EFE JUMPI POP PUSH1 0x1 EQ PUSH2 0x1EBF JUMPI JUMPDEST POP POP POP PUSH2 0x1EBD SWAP3 POP SUB DUP4 PUSH2 0x1E5A JUMP JUMPDEST JUMP JUMPDEST PUSH1 0x0 SWAP1 DUP2 MSTORE DUP6 DUP2 KECCAK256 SWAP6 SWAP4 POP SWAP2 SWAP1 JUMPDEST DUP2 DUP4 LT PUSH2 0x1EE6 JUMPI POP POP PUSH2 0x1EBD SWAP4 POP DUP3 ADD ADD CODESIZE DUP1 DUP1 PUSH2 0x1EAE JUMP JUMPDEST DUP6 SLOAD DUP9 DUP5 ADD DUP6 ADD MSTORE SWAP5 DUP6 ADD SWAP5 DUP8 SWAP5 POP SWAP2 DUP4 ADD SWAP2 PUSH2 0x1ECD JUMP JUMPDEST SWAP3 POP POP POP PUSH2 0x1EBD SWAP5 SWAP3 POP PUSH1 0xFF NOT AND DUP3 DUP5 ADD MSTORE ISZERO ISZERO PUSH1 0x5 SHL DUP3 ADD ADD CODESIZE DUP1 DUP1 PUSH2 0x1EAE JUMP JUMPDEST ISZERO PUSH2 0x1F27 JUMPI JUMP JUMPDEST PUSH1 0x40 MLOAD PUSH3 0x461BCD PUSH1 0xE5 SHL DUP2 MSTORE PUSH1 0x20 PUSH1 0x4 DUP3 ADD MSTORE PUSH1 0x1F PUSH1 0x24 DUP3 ADD MSTORE PUSH32 0x5265656E7472616E637947756172643A207265656E7472616E742063616C6C00 PUSH1 0x44 DUP3 ADD MSTORE PUSH1 0x64 SWAP1 REVERT JUMPDEST PUSH1 0x1 PUSH1 0x1 PUSH1 0x40 SHL SUB DUP2 GT PUSH2 0x6C2 JUMPI PUSH1 0x1F ADD PUSH1 0x1F NOT AND PUSH1 0x20 ADD SWAP1 JUMP JUMPDEST RETURNDATASIZE ISZERO PUSH2 0x1FB2 JUMPI RETURNDATASIZE SWAP1 PUSH2 0x1F98 DUP3 PUSH2 0x1F6C JUMP JUMPDEST SWAP2 PUSH2 0x1FA6 PUSH1 0x40 MLOAD SWAP4 DUP5 PUSH2 0x1E5A JUMP JUMPDEST DUP3 MSTORE RETURNDATASIZE PUSH1 0x0 PUSH1 0x20 DUP5 ADD RETURNDATACOPY JUMP JUMPDEST PUSH1 0x60 SWAP1 JUMP JUMPDEST ISZERO PUSH2 0x1FBE JUMPI JUMP JUMPDEST PUSH1 0x40 MLOAD PUSH3 0x461BCD PUSH1 0xE5 SHL DUP2 MSTORE PUSH1 0x20 PUSH1 0x4 DUP3 ADD MSTORE PUSH1 0xD PUSH1 0x24 DUP3 ADD MSTORE PUSH13 0x1499599D5B990819985A5B1959 PUSH1 0x9A SHL PUSH1 0x44 DUP3 ADD MSTORE PUSH1 0x64 SWAP1 REVERT JUMPDEST ISZERO PUSH2 0x1FFA JUMPI JUMP JUMPDEST PUSH1 0x40 MLOAD PUSH3 0x461BCD PUSH1 0xE5 SHL DUP2 MSTORE PUSH1 0x20 PUSH1 0x4 DUP3 ADD MSTORE PUSH1 0xD PUSH1 0x24 DUP3 ADD MSTORE PUSH13 0x2A30B9B5903737BA1037B832B7 PUSH1 0x99 SHL PUSH1 0x44 DUP3 ADD MSTORE PUSH1 0x64 SWAP1 REVERT JUMPDEST ISZERO PUSH2 0x2036 JUMPI JUMP JUMPDEST PUSH1 0x40 MLOAD PUSH3 0x461BCD PUSH1 0xE5 SHL DUP2 MSTORE PUSH1 0x20 PUSH1 0x4 DUP3 ADD MSTORE PUSH1 0x9 PUSH1 0x24 DUP3 ADD MSTORE PUSH9 0x4E6F74206A75646765 PUSH1 0xB8 SHL PUSH1 0x44 DUP3 ADD MSTORE PUSH1 0x64 SWAP1 REVERT JUMPDEST ISZERO PUSH2 0x206E JUMPI JUMP JUMPDEST PUSH1 0x40 MLOAD PUSH3 0x461BCD PUSH1 0xE5 SHL DUP2 MSTORE PUSH1 0x20 PUSH1 0x4 DUP3 ADD MSTORE PUSH1 0x14 PUSH1 0x24 DUP3 ADD MSTORE PUSH20 0x5461736B206E6F7420696E2070726F6772657373 PUSH1 0x60 SHL PUSH1 0x44 DUP3 ADD MSTORE PUSH1 0x64 SWAP1 REVERT JUMPDEST SWAP1 PUSH1 0x1F DUP2 GT PUSH2 0x20B8 JUMPI POP POP POP JUMP JUMPDEST PUSH1 0x0 SWAP2 PUSH1 0x0 MSTORE PUSH1 0x20 PUSH1 0x0 KECCAK256 SWAP1 PUSH1 0x20 PUSH1 0x1F DUP6 ADD PUSH1 0x5 SHR DUP4 ADD SWAP5 LT PUSH2 0x20F6 JUMPI JUMPDEST PUSH1 0x1F ADD PUSH1 0x5 SHR ADD SWAP2 JUMPDEST DUP3 DUP2 LT PUSH2 0x20EB JUMPI POP POP POP JUMP JUMPDEST DUP2 DUP2 SSTORE PUSH1 0x1 ADD PUSH2 0x20DF JUMP JUMPDEST SWAP1 SWAP3 POP DUP3 SWAP1 PUSH2 0x20D6 JUMP JUMPDEST PUSH1 0x0 NOT DUP2 EQ PUSH2 0x28E JUMPI PUSH1 0x1 ADD SWAP1 JUMP JUMPDEST ISZERO PUSH2 0x2116 JUMPI JUMP JUMPDEST PUSH1 0x40 MLOAD PUSH3 0x461BCD PUSH1 0xE5 SHL DUP2 MSTORE PUSH1 0x20 PUSH1 0x4 DUP3 ADD MSTORE PUSH1 0x14 PUSH1 0x24 DUP3 ADD MSTORE PUSH20 0x1059D95B9D081B9BDD081C9959DA5CDD195C9959 PUSH1 0x62 SHL PUSH1 0x44 DUP3 ADD MSTORE PUSH1 0x64 SWAP1 REVERT JUMPDEST SWAP3 SWAP2 SWAP3 PUSH2 0x215E DUP3 PUSH2 0x1F6C JUMP JUMPDEST SWAP2 PUSH2 0x216C PUSH1 0x40 MLOAD SWAP4 DUP5 PUSH2 0x1E5A JUMP JUMPDEST DUP3 SWAP5 DUP2 DUP5 MSTORE DUP2 DUP4 ADD GT PUSH2 0x1F7 JUMPI DUP3 DUP2 PUSH1 0x20 SWAP4 DUP5 PUSH1 0x0 SWAP7 ADD CALLDATACOPY ADD ADD MSTORE JUMP JUMPDEST DUP1 SLOAD SWAP1 PUSH1 0x1 PUSH1 0x40 SHL DUP3 LT ISZERO PUSH2 0x6C2 JUMPI PUSH1 0x1 DUP3 ADD DUP1 DUP3 SSTORE DUP3 LT ISZERO PUSH2 0x10AD JUMPI PUSH1 0x0 MSTORE PUSH1 0x20 PUSH1 0x0 KECCAK256 ADD SWAP1 PUSH1 0x1 DUP1 PUSH1 0xA0 SHL SUB AND PUSH1 0x1 PUSH1 0x1 PUSH1 0x60 SHL SUB PUSH1 0xA0 SHL DUP3 SLOAD AND OR SWAP1 SSTORE JUMP JUMPDEST SWAP1 SWAP2 DUP1 PUSH1 0x40 SWAP4 PUSH1 0x20 DUP5 MSTORE DUP2 PUSH1 0x20 DUP6 ADD MSTORE DUP5 DUP5 ADD CALLDATACOPY PUSH1 0x0 DUP3 DUP3 ADD DUP5 ADD MSTORE PUSH1 0x1F ADD PUSH1 0x1F NOT AND ADD ADD SWAP1 JUMP JUMPDEST DUP2 ISZERO PUSH2 0x21FD JUMPI DIV SWAP1 JUMP JUMPDEST PUSH4 0x4E487B71 PUSH1 0xE0 SHL PUSH1 0x0 MSTORE PUSH1 0x12 PUSH1 0x4 MSTORE PUSH1 0x24 PUSH1 0x0 REVERT INVALID LOG2 PUSH5 0x6970667358 0x22 SLT KECCAK256 0xD4 0xA8 SWAP5 0x21 MLOAD 0xB8 GASLIMIT XOR 0xAA 0xD3 0xC2 GAS CALLDATALOAD SLOAD 0xC3 MSIZE 0x2D SLOAD 0xAF 0xB6 RETURNDATASIZE 0xBB 0xE 0x2C DUP7 SWAP13 LOG3 0x2B CALLVALUE SIGNEXTEND 0x2F JUMPDEST PUSH5 0x736F6C6343 STOP ADDMOD XOR STOP CALLER "},"methodIdentifiers":{"CONSOLATION_BPS()":"67b32dd6","JUDGE_TIMEOUT()":"d579b402","MIN_PASS_SCORE()":"84005f61","agentList(uint256)":"2f80c54f","agents(address)":"fd66091e","applyForTask(uint256)":"d9b7d154","assignTask(uint256,address)":"5293ee81","forceRefund(uint256)":"05f8d94c","getAgentCount()":"91cab63e","getAgentInfo(address)":"152052b0","getAgentReputation(address)":"ebeae587","getApplicants(uint256)":"6cf5d86e","getMyAgents(address)":"2b4d8783","hasApplied(uint256,address)":"a39bf544","isJudgeTimeoutReached(uint256)":"22db693b","judgeAddress()":"3c03d8be","judgeAndPay(uint256,uint8,address,string)":"3663670b","owner()":"8da5cb5b","payConsolation(uint256,address)":"45f4c2bb","postTask(string,string,uint256)":"b8c0da3b","refundExpired(uint256)":"1402b17a","registerAgent(string,string,address)":"53bce15e","setJudge(address)":"b157c5cd","submitResult(uint256,string)":"8c0dd79a","taskCount()":"b6cb58a5","tasks(uint256)":"8d977672"}}}}}