{
  "_format": "hh-sol-artifact-1",
  "contractName": "AgentArena",
  "sourceName": "contracts/AgentArena.sol",
  "abi": [
    {
      "inputs": [
        {
          "internalType": "address",
          "name": "_judgeAddress",
          "type": "address"
        }
      ],
      "stateMutability": "nonpayable",
      "type": "constructor"
    },
    {
      "anonymous": false,
      "inputs": [
        {
          "indexed": true,
          "internalType": "address",
          "name": "wallet",
          "type": "address"
        },
        {
          "indexed": false,
          "internalType": "string",
          "name": "agentId",
          "type": "string"
        }
      ],
      "name": "AgentRegistered",
      "type": "event"
    },
    {
      "anonymous": false,
      "inputs": [
        {
          "indexed": true,
          "internalType": "uint256",
          "name": "taskId",
          "type": "uint256"
        },
        {
          "indexed": true,
          "internalType": "address",
          "name": "agent",
          "type": "address"
        },
        {
          "indexed": false,
          "internalType": "uint256",
          "name": "amount",
          "type": "uint256"
        }
      ],
      "name": "ConsolationPaid",
      "type": "event"
    },
    {
      "anonymous": false,
      "inputs": [
        {
          "indexed": true,
          "internalType": "uint256",
          "name": "taskId",
          "type": "uint256"
        },
        {
          "indexed": true,
          "internalType": "address",
          "name": "poster",
          "type": "address"
        },
        {
          "indexed": false,
          "internalType": "uint256",
          "name": "amount",
          "type": "uint256"
        }
      ],
      "name": "ForceRefunded",
      "type": "event"
    },
    {
      "anonymous": false,
      "inputs": [
        {
          "indexed": true,
          "internalType": "address",
          "name": "newJudge",
          "type": "address"
        }
      ],
      "name": "JudgeUpdated",
      "type": "event"
    },
    {
      "anonymous": false,
      "inputs": [
        {
          "indexed": true,
          "internalType": "uint256",
          "name": "taskId",
          "type": "uint256"
        },
        {
          "indexed": true,
          "internalType": "address",
          "name": "agent",
          "type": "address"
        },
        {
          "indexed": false,
          "internalType": "string",
          "name": "resultHash",
          "type": "string"
        }
      ],
      "name": "ResultSubmitted",
      "type": "event"
    },
    {
      "anonymous": false,
      "inputs": [
        {
          "indexed": true,
          "internalType": "uint256",
          "name": "taskId",
          "type": "uint256"
        },
        {
          "indexed": true,
          "internalType": "address",
          "name": "agent",
          "type": "address"
        }
      ],
      "name": "TaskApplied",
      "type": "event"
    },
    {
      "anonymous": false,
      "inputs": [
        {
          "indexed": true,
          "internalType": "uint256",
          "name": "taskId",
          "type": "uint256"
        },
        {
          "indexed": true,
          "internalType": "address",
          "name": "agent",
          "type": "address"
        },
        {
          "indexed": false,
          "internalType": "uint256",
          "name": "judgeDeadline",
          "type": "uint256"
        }
      ],
      "name": "TaskAssigned",
      "type": "event"
    },
    {
      "anonymous": false,
      "inputs": [
        {
          "indexed": true,
          "internalType": "uint256",
          "name": "taskId",
          "type": "uint256"
        },
        {
          "indexed": true,
          "internalType": "address",
          "name": "winner",
          "type": "address"
        },
        {
          "indexed": false,
          "internalType": "uint256",
          "name": "reward",
          "type": "uint256"
        },
        {
          "indexed": false,
          "internalType": "uint8",
          "name": "score",
          "type": "uint8"
        }
      ],
      "name": "TaskCompleted",
      "type": "event"
    },
    {
      "anonymous": false,
      "inputs": [
        {
          "indexed": true,
          "internalType": "uint256",
          "name": "taskId",
          "type": "uint256"
        },
        {
          "indexed": true,
          "internalType": "address",
          "name": "poster",
          "type": "address"
        },
        {
          "indexed": false,
          "internalType": "uint256",
          "name": "reward",
          "type": "uint256"
        },
        {
          "indexed": false,
          "internalType": "uint256",
          "name": "deadline",
          "type": "uint256"
        }
      ],
      "name": "TaskPosted",
      "type": "event"
    },
    {
      "anonymous": false,
      "inputs": [
        {
          "indexed": true,
          "internalType": "uint256",
          "name": "taskId",
          "type": "uint256"
        },
        {
          "indexed": true,
          "internalType": "address",
          "name": "poster",
          "type": "address"
        },
        {
          "indexed": false,
          "internalType": "uint256",
          "name": "amount",
          "type": "uint256"
        }
      ],
      "name": "TaskRefunded",
      "type": "event"
    },
    {
      "inputs": [],
      "name": "CONSOLATION_BPS",
      "outputs": [
        {
          "internalType": "uint256",
          "name": "",
          "type": "uint256"
        }
      ],
      "stateMutability": "view",
      "type": "function"
    },
    {
      "inputs": [],
      "name": "JUDGE_TIMEOUT",
      "outputs": [
        {
          "internalType": "uint256",
          "name": "",
          "type": "uint256"
        }
      ],
      "stateMutability": "view",
      "type": "function"
    },
    {
      "inputs": [],
      "name": "MIN_PASS_SCORE",
      "outputs": [
        {
          "internalType": "uint8",
          "name": "",
          "type": "uint8"
        }
      ],
      "stateMutability": "view",
      "type": "function"
    },
    {
      "inputs": [
        {
          "internalType": "uint256",
          "name": "",
          "type": "uint256"
        }
      ],
      "name": "agentList",
      "outputs": [
        {
          "internalType": "address",
          "name": "",
          "type": "address"
        }
      ],
      "stateMutability": "view",
      "type": "function"
    },
    {
      "inputs": [
        {
          "internalType": "address",
          "name": "",
          "type": "address"
        }
      ],
      "name": "agents",
      "outputs": [
        {
          "internalType": "address",
          "name": "wallet",
          "type": "address"
        },
        {
          "internalType": "address",
          "name": "owner",
          "type": "address"
        },
        {
          "internalType": "string",
          "name": "agentId",
          "type": "string"
        },
        {
          "internalType": "string",
          "name": "metadata",
          "type": "string"
        },
        {
          "internalType": "uint256",
          "name": "tasksCompleted",
          "type": "uint256"
        },
        {
          "internalType": "uint256",
          "name": "totalScore",
          "type": "uint256"
        },
        {
          "internalType": "uint256",
          "name": "tasksAttempted",
          "type": "uint256"
        },
        {
          "internalType": "bool",
          "name": "registered",
          "type": "bool"
        }
      ],
      "stateMutability": "view",
      "type": "function"
    },
    {
      "inputs": [
        {
          "internalType": "uint256",
          "name": "taskId",
          "type": "uint256"
        }
      ],
      "name": "applyForTask",
      "outputs": [],
      "stateMutability": "nonpayable",
      "type": "function"
    },
    {
      "inputs": [
        {
          "internalType": "uint256",
          "name": "taskId",
          "type": "uint256"
        },
        {
          "internalType": "address",
          "name": "agent",
          "type": "address"
        }
      ],
      "name": "assignTask",
      "outputs": [],
      "stateMutability": "nonpayable",
      "type": "function"
    },
    {
      "inputs": [
        {
          "internalType": "uint256",
          "name": "taskId",
          "type": "uint256"
        }
      ],
      "name": "forceRefund",
      "outputs": [],
      "stateMutability": "nonpayable",
      "type": "function"
    },
    {
      "inputs": [],
      "name": "getAgentCount",
      "outputs": [
        {
          "internalType": "uint256",
          "name": "",
          "type": "uint256"
        }
      ],
      "stateMutability": "view",
      "type": "function"
    },
    {
      "inputs": [
        {
          "internalType": "address",
          "name": "wallet",
          "type": "address"
        }
      ],
      "name": "getAgentInfo",
      "outputs": [
        {
          "internalType": "address",
          "name": "agentWallet",
          "type": "address"
        },
        {
          "internalType": "address",
          "name": "agentOwner",
          "type": "address"
        },
        {
          "internalType": "string",
          "name": "agentId",
          "type": "string"
        },
        {
          "internalType": "string",
          "name": "metadata",
          "type": "string"
        },
        {
          "internalType": "bool",
          "name": "registered",
          "type": "bool"
        }
      ],
      "stateMutability": "view",
      "type": "function"
    },
    {
      "inputs": [
        {
          "internalType": "address",
          "name": "wallet",
          "type": "address"
        }
      ],
      "name": "getAgentReputation",
      "outputs": [
        {
          "internalType": "uint256",
          "name": "avgScore",
          "type": "uint256"
        },
        {
          "internalType": "uint256",
          "name": "completed",
          "type": "uint256"
        },
        {
          "internalType": "uint256",
          "name": "attempted",
          "type": "uint256"
        },
        {
          "internalType": "uint256",
          "name": "winRate",
          "type": "uint256"
        }
      ],
      "stateMutability": "view",
      "type": "function"
    },
    {
      "inputs": [
        {
          "internalType": "uint256",
          "name": "taskId",
          "type": "uint256"
        }
      ],
      "name": "getApplicants",
      "outputs": [
        {
          "internalType": "address[]",
          "name": "",
          "type": "address[]"
        }
      ],
      "stateMutability": "view",
      "type": "function"
    },
    {
      "inputs": [
        {
          "internalType": "address",
          "name": "ownerAddr",
          "type": "address"
        }
      ],
      "name": "getMyAgents",
      "outputs": [
        {
          "internalType": "address[]",
          "name": "",
          "type": "address[]"
        }
      ],
      "stateMutability": "view",
      "type": "function"
    },
    {
      "inputs": [
        {
          "internalType": "uint256",
          "name": "",
          "type": "uint256"
        },
        {
          "internalType": "address",
          "name": "",
          "type": "address"
        }
      ],
      "name": "hasApplied",
      "outputs": [
        {
          "internalType": "bool",
          "name": "",
          "type": "bool"
        }
      ],
      "stateMutability": "view",
      "type": "function"
    },
    {
      "inputs": [
        {
          "internalType": "uint256",
          "name": "taskId",
          "type": "uint256"
        }
      ],
      "name": "isJudgeTimeoutReached",
      "outputs": [
        {
          "internalType": "bool",
          "name": "",
          "type": "bool"
        }
      ],
      "stateMutability": "view",
      "type": "function"
    },
    {
      "inputs": [],
      "name": "judgeAddress",
      "outputs": [
        {
          "internalType": "address",
          "name": "",
          "type": "address"
        }
      ],
      "stateMutability": "view",
      "type": "function"
    },
    {
      "inputs": [
        {
          "internalType": "uint256",
          "name": "taskId",
          "type": "uint256"
        },
        {
          "internalType": "uint8",
          "name": "score",
          "type": "uint8"
        },
        {
          "internalType": "address",
          "name": "winner",
          "type": "address"
        },
        {
          "internalType": "string",
          "name": "reasonURI",
          "type": "string"
        }
      ],
      "name": "judgeAndPay",
      "outputs": [],
      "stateMutability": "nonpayable",
      "type": "function"
    },
    {
      "inputs": [],
      "name": "owner",
      "outputs": [
        {
          "internalType": "address",
          "name": "",
          "type": "address"
        }
      ],
      "stateMutability": "view",
      "type": "function"
    },
    {
      "inputs": [
        {
          "internalType": "uint256",
          "name": "taskId",
          "type": "uint256"
        },
        {
          "internalType": "address",
          "name": "secondPlace",
          "type": "address"
        }
      ],
      "name": "payConsolation",
      "outputs": [],
      "stateMutability": "payable",
      "type": "function"
    },
    {
      "inputs": [
        {
          "internalType": "string",
          "name": "description",
          "type": "string"
        },
        {
          "internalType": "string",
          "name": "evaluationCID",
          "type": "string"
        },
        {
          "internalType": "uint256",
          "name": "deadline",
          "type": "uint256"
        }
      ],
      "name": "postTask",
      "outputs": [],
      "stateMutability": "payable",
      "type": "function"
    },
    {
      "inputs": [
        {
          "internalType": "uint256",
          "name": "taskId",
          "type": "uint256"
        }
      ],
      "name": "refundExpired",
      "outputs": [],
      "stateMutability": "nonpayable",
      "type": "function"
    },
    {
      "inputs": [
        {
          "internalType": "string",
          "name": "agentId",
          "type": "string"
        },
        {
          "internalType": "string",
          "name": "metadata",
          "type": "string"
        },
        {
          "internalType": "address",
          "name": "ownerAddr",
          "type": "address"
        }
      ],
      "name": "registerAgent",
      "outputs": [],
      "stateMutability": "nonpayable",
      "type": "function"
    },
    {
      "inputs": [
        {
          "internalType": "address",
          "name": "newJudge",
          "type": "address"
        }
      ],
      "name": "setJudge",
      "outputs": [],
      "stateMutability": "nonpayable",
      "type": "function"
    },
    {
      "inputs": [
        {
          "internalType": "uint256",
          "name": "taskId",
          "type": "uint256"
        },
        {
          "internalType": "string",
          "name": "resultHash",
          "type": "string"
        }
      ],
      "name": "submitResult",
      "outputs": [],
      "stateMutability": "nonpayable",
      "type": "function"
    },
    {
      "inputs": [],
      "name": "taskCount",
      "outputs": [
        {
          "internalType": "uint256",
          "name": "",
          "type": "uint256"
        }
      ],
      "stateMutability": "view",
      "type": "function"
    },
    {
      "inputs": [
        {
          "internalType": "uint256",
          "name": "",
          "type": "uint256"
        }
      ],
      "name": "tasks",
      "outputs": [
        {
          "internalType": "uint256",
          "name": "id",
          "type": "uint256"
        },
        {
          "internalType": "address",
          "name": "poster",
          "type": "address"
        },
        {
          "internalType": "string",
          "name": "description",
          "type": "string"
        },
        {
          "internalType": "string",
          "name": "evaluationCID",
          "type": "string"
        },
        {
          "internalType": "uint256",
          "name": "reward",
          "type": "uint256"
        },
        {
          "internalType": "uint256",
          "name": "deadline",
          "type": "uint256"
        },
        {
          "internalType": "uint256",
          "name": "assignedAt",
          "type": "uint256"
        },
        {
          "internalType": "uint256",
          "name": "judgeDeadline",
          "type": "uint256"
        },
        {
          "internalType": "enum AgentArena.TaskStatus",
          "name": "status",
          "type": "uint8"
        },
        {
          "internalType": "address",
          "name": "assignedAgent",
          "type": "address"
        },
        {
          "internalType": "string",
          "name": "resultHash",
          "type": "string"
        },
        {
          "internalType": "uint8",
          "name": "score",
          "type": "uint8"
        },
        {
          "internalType": "string",
          "name": "reasonURI",
          "type": "string"
        },
        {
          "internalType": "address",
          "name": "winner",
          "type": "address"
        },
        {
          "internalType": "address",
          "name": "secondPlace",
          "type": "address"
        }
      ],
      "stateMutability": "view",
      "type": "function"
    }
  ],
  "bytecode": "0x60803461007f57601f6122e438819003918201601f19168301916001600160401b038311848410176100845780849260209460405283398101031261007f57516001600160a01b0381169081900361007f57600160005560018060a01b0319338160015416176001556002541617600255604051612249908161009b8239f35b600080fd5b634e487b7160e01b600052604160045260246000fdfe6080604052600436101561001257600080fd5b60003560e01c806305f8d94c14611bfc5780631402b17a14611b01578063152052b014611a6457806322db693b14611a0b5780632b4d87831461198d5780632f80c54f146119325780633663670b146115c95780633c03d8be146115a057806345f4c2bb146113cc5780635293ee811461123857806353bce15e14610dd957806367b32dd614610dbc5780636cf5d86e14610d3657806384005f6114610d1a5780638c0dd79a14610ae45780638d977672146109895780638da5cb5b1461096057806391cab63e14610942578063a39bf544146108f5578063b157c5cd1461081f578063b6cb58a514610801578063b8c0da3b146104a9578063d579b4021461048b578063d9b7d154146102ba578063ebeae587146101fc5763fd66091e1461013a57600080fd5b346101f75760203660031901126101f7576001600160a01b038061015c611d2c565b166000526003602052604060002081815416916001820154169061018260028201611e7b565b61018e60038301611e7b565b916004810154926101dc6005830154916101ce60ff600760068701549601541695604051998a99610100918b5260208b01528060408b0152890190611d6e565b908782036060890152611d6e565b93608086015260a085015260c0840152151560e08301520390f35b600080fd5b346101f75760203660031901126101f7576001600160a01b0361021d611d2c565b166000526003602052604060002060048101546006820154908015928184156000146102b05760056102509201546121f3565b915b80156102a4576064820293828504606414171561028e57610275816080956121f3565b915b604051938452602084015260408301526060820152f35b634e487b7160e01b600052601160045260246000fd5b60809350600091610277565b5050600091610252565b346101f7576020806003193601126101f7576004359033600052600381526102ec60ff6007604060002001541661210f565b8160005260048152604060002060ff6008820154166005811015610475576103149015611ff3565b600581015442101561044157600101546001600160a01b03163314610407578160005260068152604060002033600052815260ff604060002054166103d157600390826000526006815260406000203360005281526040600020600160ff19825416179055826000526005815261038f336040600020612189565b336000525260066040600020016103a68154612100565b905533907f7f4b15de145103c2f48b4429df1c147497eb30d764058cdbdd0e7b7ad82d8fac600080a3005b6064906040519062461bcd60e51b82526004820152600f60248201526e105b1c9958591e48185c1c1b1a5959608a1b6044820152fd5b6064906040519062461bcd60e51b825260048201526013602482015272506f737465722063616e6e6f74206170706c7960681b6044820152fd5b60405162461bcd60e51b815260048101839052600c60248201526b15185cdac8195e1c1a5c995960a21b6044820152606490fd5b634e487b7160e01b600052602160045260246000fd5b346101f75760003660031901126101f757602060405162093a808152f35b60603660031901126101f7576004356001600160401b0381116101f7576104d4903690600401611df3565b6024356001600160401b0381116101f7576104f3903690600401611df3565b92909234156107ca57426044351115610785578215610749576008549261051984612100565b60085560008481526004602052604090208481556001810180546001600160a01b03191633179055926001600160401b0382116106c25761056a826105616002870154611e20565b600287016120aa565b600090601f83116001146106d85761059b92916000918361064c575b50508160011b916000199060031b1c19161790565b60028301555b60038201906001600160401b0381116106c2576105c8816105c28454611e20565b846120aa565b6000601f82116001146106575790806105fb926008969760009261064c5750508160011b916000199060031b1c19161790565b90555b34600482015560443560058201550160ff1981541690556040519034825260443560208301527fcdf01a7fce2cec80e8e617626f3f34f334ed96168dfcbebc5b9fd0a64170337e60403393a3005b013590508780610586565b601f198216908360005260206000209160005b8181106106aa5750968392916001946008989910610690575b505050811b0190556105fe565b0135600019600384901b60f8161c19169055868080610683565b9192602060018192868c01358155019401920161066a565b634e487b7160e01b600052604160045260246000fd5b600285939293016000526020600020906000935b601f1984168510610731576001945083601f19811610610717575b505050811b0160028301556105a1565b0135600019600384901b60f8161c19169055868080610707565b818101358355602094850194600190930192016106ec565b60405162461bcd60e51b815260206004820152601460248201527311195cd8dc9a5c1d1a5bdb881c995c5d5a5c995960621b6044820152606490fd5b60405162461bcd60e51b815260206004820152601760248201527f446561646c696e65206d757374206265206675747572650000000000000000006044820152606490fd5b60405162461bcd60e51b815260206004820152600f60248201526e14995dd85c99081c995c5d5a5c9959608a1b6044820152606490fd5b346101f75760003660031901126101f7576020600854604051908152f35b346101f75760203660031901126101f757610838611d2c565b6001546001600160a01b039190821633036108c45716801561088d57600280546001600160a01b031916821790557fa9080c8045c4ebe60262b7efc5fd24d1c7309e350a3c6d1838cfcaf06abdef4d600080a2005b60405162461bcd60e51b815260206004820152600f60248201526e496e76616c6964206164647265737360881b6044820152606490fd5b60405162461bcd60e51b81526020600482015260096024820152682737ba1037bbb732b960b91b6044820152606490fd5b346101f75760403660031901126101f75761090e611d58565b600435600052600660205260406000209060018060a01b0316600052602052602060ff604060002054166040519015158152f35b346101f75760003660031901126101f7576020600954604051908152f35b346101f75760003660031901126101f7576001546040516001600160a01b039091168152602090f35b346101f75760203660031901126101f75760043560005260046020526040600020805490600160a01b6001900360018201541690600281016109ca90611e7b565b916109d760038301611e7b565b926004830154936005840154916006850154600786015460088701549160098801610a0190611e7b565b95600a89015460ff1695600b8a01610a1890611e7b565b600c8b0154600d909b0154604080519e8f5260208f019b909b526101e09a8e018b90526001600160a01b039b8c169b16999096610a57918e0190611d6e565b8c810360608e0152610a6891611d6e565b9960808c015260a08b015260c08a015260e089015260ff8116600511156104755760ff811661010089015260081c6001600160a01b03166101208801528686036101408801528695610ad393610abe9190611d6e565b91610160870152858203610180870152611d6e565b916101a08401526101c08301520390f35b346101f75760403660031901126101f7576001600160401b036004356024358281116101f757610b18903690600401611df3565b909233600052602060038152610b3860ff6007604060002001541661210f565b8360005260048152604060002060088101549060ff821691600583101561047557610b666001809414612067565b3360089190911c6001600160a01b031603610ce0578415610ca4576009019284116106c257610b9f84610b998554611e20565b856120aa565b600091601f8511600114610c1857505091610c0891610bf782807fc06b551d984e333ac851ab20b1454a08d92740468f52ff54c0cd5270817f20a996600091610c0d575b508160011b916000199060031b1c19161790565b90555b6040519182913396836121cb565b0390a3005b905088013589610be3565b60008481528181209392601f19871692905b838310610c8d5750505091610c089391857fc06b551d984e333ac851ab20b1454a08d92740468f52ff54c0cd5270817f20a9969410610c73575b5050600182811b019055610bfa565b870135600019600385901b60f8161c191690558680610c64565b898501358655948501949381019391810191610c2a565b60405162461bcd60e51b815260048101849052601460248201527314995cdd5b1d081a185cda081c995c5d5a5c995960621b6044820152606490fd5b60405162461bcd60e51b8152600481018490526012602482015271139bdd08185cdcda59db9959081859d95b9d60721b6044820152606490fd5b346101f75760003660031901126101f7576020604051603c8152f35b346101f7576020806003193601126101f75760043560005260056020526040600020906040519081602084549182815201936000526020600020916000905b828210610d9c57610d9885610d8c81890382611e5a565b60405191829182611dae565b0390f35b83546001600160a01b031686529485019460019384019390910190610d75565b346101f75760003660031901126101f75760206040516103e88152f35b346101f75760603660031901126101f7576004356001600160401b0381116101f757610e09903690600401611df3565b6024356001600160401b0381116101f757610e28903690600401611df3565b9091610e32611d42565b9133600052600360205260ff600760406000200154166111fe5781156111c6576001600160a01b03928084166111c0575033935b6040519161010083018381106001600160401b038211176106c257604052338352610eae60208401928688168452610e9f36878b612152565b92604086019384523691612152565b606084015260006080840152600060a0840152600060c0840152600160e0840152336000526003602052604060002091858451166001600160601b0360a01b84541617835585600184019151166001600160601b0360a01b825416179055518051906001600160401b0382116106c257610f3882610f2f6002860154611e20565b600286016120aa565b602090601f831160011461114e57610f689291600091836111435750508160011b916000199060031b1c19161790565b60028201555b60608201518051906001600160401b0382116106c257610f9e82610f956003860154611e20565b600386016120aa565b602090601f83116001146110ce578260079360e09593610fd4936000926110c35750508160011b916000199060031b1c19161790565b60038201555b6080840151600482015560a0840151600582015560c0840151600682015501910151151560ff8019835416911617905560095491600160401b8310156106c25760018301806009558310156110ad577fda816ca2fc37b9eecec62ae8263008ec6be1afb38dc28bc9c7c51d7e348da9c2936110a8937f6e1540171b6c0c960b71a7020d9f60077f6af931a8bbf590da0223dacf75c7af01336001600160601b0360a01b82541617905516600052600760205261109a336040600020612189565b6040519182913395836121cb565b0390a2005b634e487b7160e01b600052603260045260246000fd5b015190508b80610586565b906003840160005260206000209160005b601f198516811061112b57509260e0949260019260079583601f19811610611112575b505050811b016003820155610fda565b015160001960f88460031b161c191690558a8080611102565b919260206001819286850151815501940192016110df565b015190508980610586565b9190600284016000526020600020906000935b601f19841685106111a5576001945083601f1981161061118c575b505050811b016002820155610f6e565b015160001960f88460031b161c1916905588808061117c565b81810151835560209485019460019093019290910190611161565b93610e66565b60405162461bcd60e51b815260206004820152601060248201526f1059d95b9d1259081c995c5d5a5c995960821b6044820152606490fd5b60405162461bcd60e51b8152602060048201526012602482015271105b1c9958591e481c9959da5cdd195c995960721b6044820152606490fd5b346101f75760403660031901126101f757600435611254611d58565b908060005260206004815260406000209060018060a01b0393846001840154163314948580156113bf575b1561138957600884019182549160ff83166005811015610475576112a39015611ff3565b81169687600052600385526112c260ff6007604060002001541661210f565b61132e575b6001600160a81b031990911660089190911b610100600160a81b0316176001179055426006830181905562093a80810190811061028e578060077ffdbec991c520c476b24bb9ee9123ea146594b230b424c8140b23c33ac5906242940155604051908152a3005b8560005260068452604060002087600052845260ff604060002054166112c75760405162461bcd60e51b81526004810185905260136024820152724167656e7420646964206e6f74206170706c7960681b6044820152606490fd5b60405162461bcd60e51b815260048101849052600e60248201526d139bdd08185d5d1a1bdc9a5e995960921b6044820152606490fd5b508060025416331461127f565b60403660031901126101f7576004356113e3611d58565b6002546001600160a01b039291906113fe908416331461202f565b61140d60026000541415611f20565b6002600055816000526020906004825260ff60086040600020015416600581101561047557600203611566578316928315159081611549575b501561150e5734156114d257600080808034875af1611463611f87565b5015611499577fc07e777c450bb856b658f73950d73812ad767e7a726d180e8967645b01a3542590604051348152a36001600055005b6064906040519062461bcd60e51b82526004820152601260248201527110dbdb9cdbdb185d1a5bdb8819985a5b195960721b6044820152fd5b6064906040519062461bcd60e51b825260048201526015602482015274139bc818dbdb9cdbdb185d1a5bdb88185b5bdd5b9d605a1b6044820152fd5b6064906040519062461bcd60e51b825260048201526014602482015273496e76616c6964207365636f6e6420706c61636560601b6044820152fd5b90508260005260048252600c604060002001541683141584611446565b60405162461bcd60e51b815260048101839052601260248201527115185cdac81b9bdd0818dbdb5c1b195d195960721b6044820152606490fd5b346101f75760003660031901126101f7576002546040516001600160a01b039091168152602090f35b346101f75760803660031901126101f7576004356024359060ff82168092036101f7576115f4611d42565b916001600160401b03906064358281116101f757611616903690600401611df3565b9460018060a01b039161162e8360025416331461202f565b61163d60026000541415611f20565b60026000558560005260209260048452604060002095600887019360ff85541660058110156104755760016116729114612067565b61167f6009890154611e20565b156118f75782169889156118c157600a8801805460ff199081168917909155600c890180546001600160a01b0319168c17905593600b89019282116106c2576116cc82610b998554611e20565b600090601f831160011461185a576116fc92916000918361184f5750508160011b916000199060031b1c19161790565b90555b6004860154958354828160081c168a1480611844575b156117e357505050600290825416179055846000526003815260046040600020016117408154612100565b90558460005260038152600560406000200180549083820180921161028e5755600080808086895af1611771611f87565b50156117ae57916040917f6f86192dffec1db9a9661011e799dea69af8d97961785f45d421ac62a59e606d938351928352820152a35b6001600055005b6064906040519062461bcd60e51b82526004820152600e60248201526d14185e5b595b9d0819985a5b195960921b6044820152fd5b7f098446306d18a8ba797caf5ad3be836bc7fadb0fa82d207e934992497bdeaf61979950600194929596509260039193161790550161183560008080808a878754165af161182f611f87565b50611fb7565b541693604051908152a36117a7565b50603c871015611715565b013590508c80610586565b601f1983169184600052886000209260005b8a8282106118ab575050908460019594939210611891575b505050811b0190556116ff565b0135600019600384901b60f8161c191690558b8080611884565b600184968293958701358155019501920161186c565b60405162461bcd60e51b815260048101879052600e60248201526d24b73b30b634b2103bb4b73732b960911b6044820152606490fd5b60405162461bcd60e51b8152600481018790526013602482015272139bc81c995cdd5b1d081cdd589b5a5d1d1959606a1b6044820152606490fd5b346101f75760203660031901126101f7576004356009548110156101f75760096000527f6e1540171b6c0c960b71a7020d9f60077f6af931a8bbf590da0223dacf75c7af01546040516001600160a01b039091168152602090f35b346101f7576020806003193601126101f7576001600160a01b03806119b0611d2c565b1660005260076020526040600020916040518092602085549283815201946000526020600020926000915b8383106119f257610d9886610d8c818a0382611e5a565b84548116875295810195600194850194909201916119db565b346101f75760203660031901126101f7576004356000526004602052604060002060ff600882015416906005821015610475576001602092149081611a56575b506040519015158152f35b600791500154421182611a4b565b346101f75760203660031901126101f7576001600160a01b0380611a86611d2c565b166000526003602052604060002090808254169060018301541691611af560ff60078301541691611ae7611ac86003611ac160028501611e7b565b9301611e7b565b916040519687968752602087015260a0604087015260a0860190611d6e565b908482036060860152611d6e565b90151560808301520390f35b346101f75760203660031901126101f757600435611b2460026000541415611f20565b60026000558060005260046020526040600020906008820180549260ff8416600581101561047557611b569015611ff3565b6005810154421115611bc9576001817f098446306d18a8ba797caf5ad3be836bc7fadb0fa82d207e934992497bdeaf61936003600460209501549760ff19161790550160018060a01b0390611bb860008080808a878754165af161182f611f87565b541693604051908152a36001600055005b60405162461bcd60e51b815260206004820152600b60248201526a139bdd08195e1c1a5c995960aa1b6044820152606490fd5b346101f75760203660031901126101f757600435611c1f60026000541415611f20565b60026000558060005260046020526040600020906008820180549260ff8416600581101561047557600103611cf5576007810154421115611cb0576001817fa80d00e5ef4409f5bccace50fa19f6ae8a403470d95d8888605016b72021abda936003600460209501549760ff19161790550160018060a01b0390611bb860008080808a878754165af161182f611f87565b60405162461bcd60e51b815260206004820152601960248201527f4a756467652074696d656f7574206e6f742072656163686564000000000000006044820152606490fd5b60405162461bcd60e51b815260206004820152600f60248201526e4e6f7420696e2070726f677265737360881b6044820152606490fd5b600435906001600160a01b03821682036101f757565b604435906001600160a01b03821682036101f757565b602435906001600160a01b03821682036101f757565b919082519283825260005b848110611d9a575050826000602080949584010152601f8019910116010190565b602081830181015184830182015201611d79565b602090602060408183019282815285518094520193019160005b828110611dd6575050505090565b83516001600160a01b031685529381019392810192600101611dc8565b9181601f840112156101f7578235916001600160401b0383116101f757602083818601950101116101f757565b90600182811c92168015611e50575b6020831014611e3a57565b634e487b7160e01b600052602260045260246000fd5b91607f1691611e2f565b90601f801991011681019081106001600160401b038211176106c257604052565b90604051918260008254611e8e81611e20565b90818452602094600191600181169081600014611efe5750600114611ebf575b505050611ebd92500383611e5a565b565b600090815285812095935091905b818310611ee6575050611ebd9350820101388080611eae565b85548884018501529485019487945091830191611ecd565b92505050611ebd94925060ff191682840152151560051b820101388080611eae565b15611f2757565b60405162461bcd60e51b815260206004820152601f60248201527f5265656e7472616e637947756172643a207265656e7472616e742063616c6c006044820152606490fd5b6001600160401b0381116106c257601f01601f191660200190565b3d15611fb2573d90611f9882611f6c565b91611fa66040519384611e5a565b82523d6000602084013e565b606090565b15611fbe57565b60405162461bcd60e51b815260206004820152600d60248201526c1499599d5b990819985a5b1959609a1b6044820152606490fd5b15611ffa57565b60405162461bcd60e51b815260206004820152600d60248201526c2a30b9b5903737ba1037b832b760991b6044820152606490fd5b1561203657565b60405162461bcd60e51b81526020600482015260096024820152684e6f74206a7564676560b81b6044820152606490fd5b1561206e57565b60405162461bcd60e51b81526020600482015260146024820152735461736b206e6f7420696e2070726f677265737360601b6044820152606490fd5b90601f81116120b857505050565b6000916000526020600020906020601f850160051c830194106120f6575b601f0160051c01915b8281106120eb57505050565b8181556001016120df565b90925082906120d6565b600019811461028e5760010190565b1561211657565b60405162461bcd60e51b81526020600482015260146024820152731059d95b9d081b9bdd081c9959da5cdd195c995960621b6044820152606490fd5b92919261215e82611f6c565b9161216c6040519384611e5a565b8294818452818301116101f7578281602093846000960137010152565b805490600160401b8210156106c257600182018082558210156110ad576000526020600020019060018060a01b03166001600160601b0360a01b825416179055565b90918060409360208452816020850152848401376000828201840152601f01601f1916010190565b81156121fd570490565b634e487b7160e01b600052601260045260246000fdfea2646970667358221220d4a8942151b84518aad3c25a3554c3592d54afb63dbb0e2c869ca32b340b2f5b64736f6c63430008180033",
  "linkReferences": {},
  "deployedLinkReferences": {}
}